:02000002D0002C
:1040000000400D00804F0E00000006000D0005016D
:084010000401FD08000000009E
:04401800EC370E0073
:1040200009480A49884208B505D0094A824202D0A7
:10403000121A0DF085FA0748074A0021121A0DF0EE
:10404000A7FA014808BD00BF18E10320C44C0E00C8
:10405000A8E30320A8E30320F0E7032070B5074E90
:10406000074C0CF063F9A41BA4080025A54200D15D
:1040700070BD56F8043B98470135F7E77C4C0E00BD
:10408000C04C0E0000F060B808B500F083F8BDE841
:1040900008400CF003B908F07DBF08F07BBF08F0C2
:1040A00081BF08F07FBF000008B5034A00210C2043
:1040B00008F006FEFEE700BFF1C80D000078B0FA78
:1040C00080F0400970470123037070477047006A11
:1040D0000368DB681847000010B5034B0360044613
:1040E00004F0FAF8204610BD38380E0010B504462A
:1040F000FFF7F2FF204610210CF06EFA204610BDAB
:104100000A4B10B5044603600AF0EAFB21460AF0A8
:10411000ACFD0CF07BF80CF06DF82046044B40F839
:10412000043B0AF08FFC204610BD00BF20380E0073
:1041300008380E0010B50446FFF7E2FF20462421A0
:104140000CF04AFA204610BD10B5114C00F042F9AF
:1041500000F064F901F018FC00F0F0F908232046A3
:104160000121638102F020FA0021204601F0FEFFC8
:104170007C21204601F076FF04F028FB04F040FD8E
:1041800001F0E4F906F0C4F8BDE8104007F038B8D3
:10419000B4E3032008B506F0BBF808F003FB0548BC
:1041A00002F0E2FA04F012FB04F002FABDE8084063
:1041B00001F02ABBB4E3032070B5D0E90053142604
:1041C000044606FB0356AE4204D028460BF0B8FB6B
:1041D0001435F8E7206808F0E5FE204670BD8842F7
:1041E000F8B504460D46164616D9904215D2A2F1EE
:1041F0001406751AA1F114072C44B7421CD02CB137
:10420000314620460BF018FC337C237430460BF00B
:1042100097FB143E143CF0E70ED0B5420CD02CB105
:10422000294620460BF008FC2B7C237428460BF013
:1042300087FB14351434F0E7F8BD2DE9F041002375
:10424000C0E9003383604F689F4204460E4623DD79
:104250004FF0140808FB07F008F09CFE0546D8B1A3
:10426000D4E9001208FB0212FFF7B9FF206808F03A
:1042700099FE2560A760D6E9007308FB0378B8456E
:1042800008D0394628460BF0F1FB3B7C2B741437E1
:104290001435F4E7736863602046BDE8F0810000E0
:1042A000F0B58DB00024CDE9004402940BF0AEFFD0
:1042B000334D0646694603A8FFF7BFFF2F4603A903
:1042C00006A8FFF7BAFF2F4B47F8043B06A909A839
:1042D000FFF7B3FF09AA1E2138460AF020FE09A8FD
:1042E000FFF76AFF06A8FFF767FF274B2B602E62D8
:1042F00003A8FFF761FF254B2B600BF087FF4FF4FE
:1043000016510BF073FF0AF0EBFA29460AF099FDFB
:104310006846FFF751FF2146012008F03BFD1C4B8A
:104320001C4A1C609C809C719A60022008F01AFD57
:104330000121042008F0BCFA0CF006F969220146BC
:104340001548164D01F09EFD0CF0FEF8234601467F
:104350004FF40052284603F0CBFF114B2B600CF0BA
:1043600017F8234622460D210CF01AF80CF010F82D
:104370002346224621460CF01BF80DB0F0BD00BFCD
:10438000E4E3032008380E0058480E0020380E00E1
:10439000A8E303200000FFFFB4E30320D4E30320DD
:1043A00038380E000EB410B58DB00FAA016852F85F
:1043B000044B039200232020CDE90403CDE9004201
:1043C0001E2004AA08F09CFC0DB0BDE8104003B00C
:1043D0007047000008B50F490F48FFF7E3FF0021C1
:1043E00013200CF02BF8002112200CF027F80121EB
:1043F00011200CF023F8022104200CF01FF80021FA
:1044000008200CF01BF8012107200CF017F8012000
:1044100008BD00BF4C380E0060E5032010B5202415
:1044200090B02246002168460DF0B2F822460021E5
:104430000DEB04008DF805400DF0AAF800210DEBFE
:1044400004008DF8254008F0E1FC41F2D833ADF8C6
:104450000630094B029341F27003ADF80C30009B1B
:10446000002143F400736846009308F0CFFC003845
:1044700018BF012010B010BD840384030023042260
:1044800008F0D8BC37B59DF818501D438DF8005082
:104490003C23044609F0C0F8204603B030BD0000BC
:1044A00013B51B4C6389B3F5C05F23D119491A4872
:1044B0000DF0D4F8174919480DF0D0F82369184ABF
:1044C0001848102108F08EFDE0680CF03DFC164AFB
:1044D000CDE900010821154808F084FD60690CF061
:1044E00033FC134ACDE900010821124808F07AFD97
:1044F00002B010BDA37A104A0748082108F072FDE7
:10450000E37A0D4A0548082108F06CFDD6E700BFA4
:1045100050E4032070380E002EE1032026E1032032
:1045200079380E0036E103207D380E0046E1032085
:1045300085380E001EE1032073380E0030B589B0B7
:104540003B4B00933B4B01933B4B02933B4B039301
:104550003B4B04933B4B3C493C48059300253C4B6B
:1045600006930795FFF71EFF3A493B483B4CFFF780
:1045700085FF3B493B48FFF781FF3B493B48FFF73D
:104580007DFF3B4A3B4B617A3B48A94214BF114631
:104590001946FFF773FF39493948FFF76FFF39496B
:1045A0003948FFF76BFF394939482B46022208F09A
:1045B00041FC384B38481B7B08AA02EB830353F8B5
:1045C000201CFFF75BFF35493548FFF757FF35499A
:1045D0003548FFF753FF35493548FFF74FFF354959
:1045E0003548FFF74BFF35493548FFF747FF354A58
:1045F0003549364808F004FF354A3649334808F053
:10460000FFFE354A3549314808F0FAFE344A35494B
:104610002E4808F0F5FE344B18880BF039FF00B92E
:10462000607201F04BFB09B0BDE83040FFF738BFC6
:1046300093380E009B380E009F380E00A8380E00ED
:10464000B0380E00BC380E00CE380E0060E50320F6
:10465000C2380E004EE10320FC380E0050E4032067
:104660002EE103200A390E0026E1032014390E0042
:104670008C380E0090380E001F390E0018E1032010
:104680002D390E005EE1032035390E0028E40320A9
:104690003C390E0020E4032047390E009EE1032040
:1046A00056390E00AEE1032063390E0046E10320C7
:1046B0006D390E0036E1032079390E001EE103202A
:1046C000AF390E008A390E0019470D00D5D30D0001
:1046D00097390E00B1470D00AB390E003D480D0073
:1046E000BE390E00D1480D0066380E0038B504689A
:1046F00005467CB16368013B63605BB92368204673
:104700009B689847A368013BA3601BB923682046B8
:10471000DB689847284638BD10B51C4994B004465C
:104720000BF034FA48B3194920460BF02FFA184B16
:10473000002814BF012200225A72164A164B4FF06D
:10474000400118BF134604A8144A08F04BFC144853
:1047500004A9FFF727FE08F08DFB60B100238DF858
:104760000030104B10491B7802A804AAFFF78AFEFC
:1047700003A8FFF7BBFF012005E00C4920460BF022
:1047800005FA0028CFD114B010BD00BFDC3B0E00ED
:1047900050E40320D1390E00D6390E00DC390E006A
:1047A00060E5032008E40320EF390E0082470E0085
:1047B00030B587B0006803A90DF0E8FDB5EEC00A7A
:1047C000F1EE10FA28D4DFED167AB4EEE70AF1EE36
:1047D00010FACCBF012400241EDC124D85ED030A23
:1047E000FFF75EFE08F046FBA0B1D5ED037A0E4B55
:1047F000F5EE407AF1EE10FA1B7807BF0B4A0C4930
:104800000C4A0D498DF8004004A8FFF73BFE05A8AF
:10481000FFF76CFF012000E0002007B030BD00BFB3
:104820000000C84250E4032008E40320F4390E00DD
:104830000F3A0E0046E10320A1390E0030B52DEDF0
:10484000028B87B0006803A90DF0A0FDB5EEC00A89
:10485000F1EE10FA28D49FED178AB4EEC80AF1EEF3
:1048600010FACCBF012400241EDC134D85ED050A8F
:10487000FFF716FE08F0FEFAA0B1D5ED057A0F4B52
:10488000F4EE487AF1EE10FA1B7807BF0C4A0D4996
:104890000D4A0E498DF8004004A8FFF7F3FD05A866
:1048A000FFF724FF012000E0002007B0BDEC028BE1
:1048B00030BD00BF0000C84250E4032008E40320DC
:1048C000163A0E000F3A0E0046E10320363A0E006B
:1048D00010B586B000680A2203A90DF057FE07EE56
:1048E000900AF8EEE77AF5EEC07AF1EE10FA21D4EC
:1048F0009FED127AF4EEC77AF1EE10FACCBF0124E4
:10490000002417DCFDEEE77A0D4BC3ED047AFFF7C8
:10491000C7FD08F0AFFA58B10A4B8DF8004004A863
:104920001B78094A0949FFF7ADFD05A8FFF7DEFE30
:10493000012000E0002006B010BD00BF00007A4456
:1049400050E4032008E4032036E10320C8390E00B8
:10495000014B01221A70704708E4032000680A68BE
:10496000D0E90001002382428B41ACBF012000202E
:104970007047022A06D0032A02D0012A00D1016022
:10498000002070470B680360FAE7022A06D0032A6A
:1049900002D0012A00D10160002070470B6803603B
:1049A000FAE7012A08BF016000207047012A08BF0A
:1049B000016000207047012A08BF01600020704795
:1049C000012A08BF01600020704708B50021006877
:1049D00001F048FB012008BD08B54FF0FF31006829
:1049E00001F040FB012008BD10B50B6801330C46F7
:1049F0000AD103F0EBFE002104F094F801232360B8
:104A0000002484F0010010BD0368D3E9000150EADE
:104A1000010309D01268002382428B4104DB03F0BA
:104A2000D5FE012104F07EF803F0D0FE90F8B340EB
:104A3000002CE6D003F0CAFE012104F073F803F065
:104A4000C5FE03F021FFDCE7024B587A80F001003D
:104A5000704700BF50E4032008B503F0B7FE012102
:104A600004F060F8012008BD022A38B5044607D0DA
:104A7000032A10D0012A01D10B680360002038BD41
:104A800008200D68FFF707FB18B1D5E90023C0E93E
:104A900000232060F2E700680028EFD008210BF027
:104AA0009BFDEBE7022A38B5044607D0032A10D055
:104AB000012A01D10B680360002038BD08200D6871
:104AC000FFF7E9FA18B1D5E90023C0E90023206017
:104AD000F2E700680028EFD008210BF07DFDEBE73E
:104AE00010B58368044613B1032201469847204657
:104AF00010BD13B50446084601910CF0D4FD019990
:104B00000246204602B0BDE8104009F01FBD00007B
:104B100038B50C4620461949FFF7EBFF05460BF068
:104B200074FA01462846164D09F052FC15492046F4
:104B3000FFF7DFFF297B09F04BFC13492046FFF705
:104B4000D8FF95ED000B09F085FC10492046FFF7D2
:104B5000D0FF95ED080B09F07DFC0D492046FFF7CD
:104B6000C8FF95ED0A0B09F075FC0A492046FFF7CE
:104B7000C0FF297EBDE8384009F02ABCA8430E00DA
:104B800020E403203B3A0E0027450E003E3A0E007B
:104B9000413A0E00443A0E0010B57F240470002400
:104BA000C0E90144C0E90344C0E905444968034C35
:104BB0005268C461C0E90814826210BD5C3F0E00F7
:104BC00010B50446243002F05FF804F11C0002F036
:104BD0005BF8206908B1FFF762FA606808B1FFF777
:104BE0005EFA204610BD38B5002383608B6804460A
:104BF0000D462BB102229847EB68E360AB68A360D7
:104C0000204638BD10B59AB00BF0E2F900284DD01F
:104C10004FF4FA6008F042FA01F050F8254B1B7E81
:104C2000012B26D124492548FFF7BCFB244B254AFC
:104C30001B6940210AA808F0D5F9234B23491B78AA
:104C40008DF800300AAA3C2306A808F0E5FC079C72
:104C50007CB16368013B63605BB9236820469B6855
:104C60009847A368013BA3601BB923682046DB6813
:104C7000984705F04DFB164B05930446154B0493DE
:104C800002A906A8FFF7AFFF06A90AA8FFF7ABFF26
:104C90000AA904F5EA6005F0A5FB0AA8FFF720FFC2
:104CA00006A8FFF71DFF02A8FFF71AFF00201AB0A1
:104CB00010BD00BF20E40320473A0E0060E503204A
:104CC00050E40320693A0E0009E40320793A0E000B
:104CD000114B0D00AD490D0038B5002383608B6882
:104CE00004460D462BB102229847EB68E360AB689F
:104CF000A360204638BD38B5002383608B68044626
:104D00000D462BB102229847EB68E360AB68A360C5
:104D1000204638BD38B5002383608B6804460D46B5
:104D20002BB102229847EB68E360AB68A360204692
:104D300038BD38B5002383608B6804460D462BB11F
:104D400002229847EB68E360AB68A360204638BD59
:104D500038B5002383608B6804460D462BB10222D0
:104D60009847EB68E360AB68A360204638BD38B570
:104D7000002383608B6804460D462BB102229847BE
:104D8000EB68E360AB68A360204638BD13B50B4603
:104D90000246D0E900016C4684E8030093E8030072
:104DA00082E8030094E8030083E8030002B010BD2A
:104DB0002DE9F843074688461646154604464FF047
:104DC0000009444514D06DB1C5F808902946204625
:104DD000FFF7DCFFA368AA68A260AB60E368EA683B
:104DE000E260EB602046FFF77BFE10341035E8E709
:104DF000E01B3044BDE8F8832DE9F84307468846B8
:104E00001646154604464FF00009444514D06DB1CE
:104E1000C5F8089029462046FFF7B8FFA368AA689E
:104E2000A260AB60E368EA68E260EB602046FFF7EF
:104E300057FE10341035E8E7E01B3044BDE8F88336
:104E40002DE9F843074688461646154604464FF0B6
:104E50000009444514D06DB1C5F808902946204694
:104E6000FFF794FFA368AA68A260AB60E368EA68F2
:104E7000E260EB602046FFF733FE10341035E8E7C0
:104E8000E01B3044BDE8F8832DE9F8430746884627
:104E90001646154604464FF00009444514D06DB13E
:104EA000C5F8089029462046FFF770FFA368AA6856
:104EB000A260AB60E368EA68E260EB602046FFF75F
:104EC0000FFE10341035E8E7E01B3044BDE8F883EE
:104ED0002DE9F843074688461646154604464FF026
:104EE0000009444514D06DB1C5F808902946204604
:104EF000FFF74CFFA368AA68A260AB60E368EA68AA
:104F0000E260EB602046FFF7EBFD10341035E8E778
:104F1000E01B3044BDE8F8832DE9F8430746884696
:104F20001646154604464FF00009444514D06DB1AD
:104F3000C5F8089029462046FFF728FFA368AA680D
:104F4000A260AB60E368EA68E260EB602046FFF7CE
:104F5000C7FD10341035E8E7E01B3044BDE8F883A6
:104F60002DE9F347D0E9007988466FF07843114680
:104F7000A9EB0702B3EB221F06464FEA221402D127
:104F80001A480BF066FB012C224638BF0122A418F8
:104F9000A8EB070A28D24CB19C4228BF1C4620012E
:104FA0000191FFF778F80199054600E0254615EBD9
:104FB0000A0001D0FFF790FE41462A463846FFF727
:104FC0003FFF494600F110024046FFF739FF804697
:104FD00017B13846FFF763F805EB0414C6E900582B
:104FE000B46002B0BDE8F0871C46D8E78C3A0E00EA
:104FF0002DE9F347D0E9007988466FF078431146F0
:10500000A9EB0702B3EB221F06464FEA221402D196
:105010001A480BF01EFB012C224638BF0122A418AF
:10502000A8EB070A28D24CB19C4228BF1C4620019D
:105030000191FFF730F80199054600E0254615EB90
:105040000A0001D0FFF757FE41462A463846FFF7CF
:1050500063FF494600F110024046FFF75DFF8046BE
:1050600017B13846FFF71BF805EB0414C6E90058E2
:10507000B46002B0BDE8F0871C46D8E78C3A0E0059
:105080002DE9F347D0E9007988466FF0784311465F
:10509000A9EB0702B3EB221F06464FEA221402D106
:1050A0001A480BF0D6FA012C224638BF0122A41868
:1050B000A8EB070A28D24CB19C4228BF1C4620010D
:1050C0000191FEF7E8FF0199054600E0254615EB42
:1050D0000A0001D0FFF71EFE41462A463846FFF778
:1050E0008BFE494600F110024046FFF785FE8046E0
:1050F00017B13846FEF7D3FF05EB0414C6E9005894
:10510000B46002B0BDE8F0871C46D8E78C3A0E00C8
:105110002DE9F347D0E9007988466FF078431146CE
:10512000A9EB0702B3EB221F06464FEA221402D175
:105130001A480BF08EFA012C224638BF0122A4181F
:10514000A8EB070A28D24CB19C4228BF1C4620017C
:105150000191FEF7A0FF0199054600E0254615EBF9
:105160000A0001D0FFF7E5FD41462A463846FFF721
:10517000AFFE494600F110024046FFF7A9FE804607
:1051800017B13846FEF78BFF05EB0414C6E900584B
:10519000B46002B0BDE8F0871C46D8E78C3A0E0038
:1051A0002DE9F347D0E9007988466FF0784311463E
:1051B000A9EB0702B3EB221F06464FEA221402D1E5
:1051C0001A480BF046FA012C224638BF0122A418D7
:1051D000A8EB070A28D24CB19C4228BF1C462001EC
:1051E0000191FEF758FF0199054600E0254615EBB1
:1051F0000A0001D0FFF7ACFD41462A463846FFF7CA
:1052000043FE494600F110024046FFF73DFE80464E
:1052100017B13846FEF743FF05EB0414C6E9005802
:10522000B46002B0BDE8F0871C46D8E78C3A0E00A7
:1052300030B589B00446274B009103930D46264BA9
:105240000293694604A8FFF747FDD4F85406D4F842
:10525000583698422FD010B104A9FFF73DFDD4F87D
:1052600054361033C4F8543604A8FFF739FC6846A6
:10527000FFF736FC194B03936946194B029304A8B8
:105280000095FFF765FDD4F8FC06D4F80037984286
:1052900018D010B104A9FFF75BFDD4F8FC36103329
:1052A000C4F8FC3604A8FFF71BFC6846FFF718FC9F
:1052B000204609B030BD014604AA04F5CA60FFF7D4
:1052C0004FFED1E7014604AA04F5DF60FFF768FF4F
:1052D000E8E700BFD9490D0073490D00CB490D0027
:1052E0008B490D002DE9F347D0E9007988466FF02E
:1052F00078431146A9EB0702B3EB221F06464FEA9B
:10530000221402D11A480BF0A4F9012C224638BF0E
:105310000122A418A8EB070A28D24CB19C4228BF4E
:105320001C4620010191FEF7B6FE0199054600E0FA
:10533000254615EB0A0001D0FFF719FD41462A4624
:105340003846FFF735FD494600F110024046FFF7A9
:105350002FFD804617B13846FEF7A1FE05EB041479
:10536000C6E90058B46002B0BDE8F0871C46D8E733
:105370008C3A0E002DE9F84FD0E9008A93466FF081
:105380007043AAEB0802B3EBE20F074689464FEAE7
:10539000E20402D125480BF05CF9012C224638BF0B
:1053A0000122A418A1EB08063DD23CB19C4228BFC3
:1053B0001C46E000FEF76FFE054600E02546AB19EF
:1053C0001CBFDBE90001C3E90001002308EB030275
:1053D00091450AD015EB030C18BFD2E9000103F187
:1053E000080318BFCCE90001F0E708362E44324626
:1053F0004B46534502F1080205D093E803000833F9
:1054000002E90300F5E7A3EB09031E44B8F1000F1E
:1054100002D04046FEF743FE05EBC404C7E9005640
:10542000BC60BDE8F88F1C46C3E700BF8C3A0E0095
:1054300010B50A46D0E901418C42034608D01CB1A0
:1054400092E8030084E803005A6808325A6010BDED
:105450002146FFF78FFFFAE710B5044686B002A891
:10546000FFF758FCD4F8CC06D4F8D036984218D0C0
:1054700010B102A9FFF74EFCD4F8CC361033C4F8B3
:10548000CC364FF0FF330022694604F2D460CDE9F8
:105490000032FFF7CDFF02A8FFF722FB204606B03F
:1054A00010BD014602AA04F5D960FFF7E9FDE8E75F
:1054B00070B588B004461D461D4B039369461D4BCD
:1054C000029304A81646FFF734FCD4F8F006D4F88B
:1054D000F436984225D010B104A9FFF72AFCD4F87D
:1054E000F0361033C4F8F03604A8FFF7F9FA68462E
:1054F000FFF7F6FA002308200693FEF7CCFD08B16B
:10550000C0E900650C4B0490079304A90B4B06936C
:105510002046FFF7A1FF04A8FFF7E2FA204608B0F3
:1055200070BD014604AA04F2EC60FFF7F1FDDBE771
:10553000594A0D00A3490D00E9490D00A54A0D0087
:10554000014B01221A70704709E4032030B59DB069
:1055500004F0DEFE744BC0F8A03704460023082098
:105560000493FEF798FD18B1704A0023C0E90023A8
:105570006F4B0290059302A96E4B049306A8FFF7A8
:10558000F6FBD4F80807D4F80C37984200F0BE8038
:1055900010B106A9FFF7EBFBD4F808371033C4F8B5
:1055A000083706A8FFF79CFA02A8FFF799FA01F05E
:1055B000D5FF6149054606A801F0F4FE07A905F1EB
:1055C00008000AF044FA0C9BEB610DA905F12000DC
:1055D0000AF03DFA129B6B63149BEB63169B6B64A2
:1055E000189BEB641A9B6B659DF86C3085F85830FE
:1055F00006A801F061FB514904F254700AF049FA1F
:105600004F4904F26C700AF044FA4E4B059302A91C
:105610004D4B049306A8FFF76EFBD4F8B406D4F8FC
:10562000B836984279D010B106A9FFF764FBD4F8D8
:10563000B4361033C4F8B43600224FF0FF33694655
:1056400004F2BC60CDE90032FFF7F2FE06A8FFF7D6
:1056500047FA3E4B099306A93D4B08932046FFF7B6
:10566000FBFE3C49FFF7E4FD00230022FFF720FF8B
:1056700006A8FFF735FA02A8FFF732FA04F048FE51
:10568000354900F5C76002F0CDFD3449044668464F
:1056900001F0ACFC324902A801F0A8FC02AA69465C
:1056A00006A8FFF779FA06AA3C21204602F0C1FCC1
:1056B00006A8FFF785FA02A801F0E6FA684601F0AD
:1056C000E3FA04F025FE274900F5C76002F0AAFDC1
:1056D00022490446684601F089FC214902A801F0EC
:1056E00085FC02AA694606A8FFF756FA06AA0F210A
:1056F000204602F09EFC06A8FFF762FA02A801F01D
:10570000C3FA684601F0C0FA1DB030BD014606AAD2
:1057100004F20470FFF7E6FD43E7014606AA04F52C
:10572000D660FFF765FC87E7E093040020120A00CB
:105730005D490D00694A0D00A63A0E00CF3A0E00F1
:10574000DF3A0E00054C0D00B7490D00494A0D0027
:10575000C1490D00B4E30320E23A0E00E73A0E001F
:10576000F03A0E002B400E001FB507F083FBD8B1B6
:10577000174B184A1B788DF8003017493C2302A8B4
:1057800007F04AFF039C7CB16368013B63605BB92F
:10579000236820469B689847A368013BA3601BB918
:1057A00023682046DB6898470C490D48FEF7FAFD50
:1057B0000C4B01221A700C4A0A21C3E90112002283
:1057C000DA6000221A61094A5A6104B010BD00BFB4
:1057D0000AE40320F93A0E00EF390E00113B0E00E7
:1057E00060E5032050E40320000106160000C842D3
:1057F000014A08210AF0F2BE07690FC7014B0122D6
:105800001A7070470AE403202DE9F0412DED028B58
:10581000544C82B00AF0F9FBD4E90023C117994235
:1058200008BF904200F09C804F4F0AF0EEFB7B686F
:105830003E787D7A97ED038A1E443B7AC1171E4459
:10584000C4E900012E4418EE100ABD7A0BF07CFA70
:105850002E44B5EE408AFD7AF1EE10FACDE9000152
:105860002E4471D06846FFF7C3FF3D6997ED058A66
:105870002E44341818EE100A0BF066FAB5EE408A82
:10588000F1EE10FACDE9000160D06846FFF7B0FFF5
:10589000364D2B6804449C425AD035493548FEF7B2
:1058A00081FD314A34481823012102F0B8FD012757
:1058B0002C60324CD4E9000100220023CDE9000124
:1058C0000BF002FDA046002844D16846FFF790FF88
:1058D000D8F8086098F80C303344D8F81060334496
:1058E00098F8186033441C18D8E9080100220023F6
:1058F000CDE900010BF0E8FC70BB6846FFF778FFCC
:105900000444D8E90A0100220023CDE900010BF08C
:10591000DBFC18BB6846FFF76BFF194D2B6804448E
:105920009C420BD017491348FEF73CFD134A12481E
:105930003023502102F073FD01272C60384602B05D
:10594000BDEC028BBDE8F08100208EE700209FE7D0
:105950000027AEE70020BBE70020D1E70020DCE70E
:105960000027EBE710E4032050E403201CE40320AD
:10597000293B0E0060E50320D4E3032020E403204C
:1059800018E40320513B0E0013B51D4802F0BAFC89
:105990001B4801230DF10702002102F0F5FC9DF8E0
:1059A0000740012C18D0164802F0B6FC154A1448DE
:1059B0000423002102F033FD114801230DF10702F9
:1059C000002102F0E1FC9DF80740012C15D1FFF702
:1059D000CBFE204602B010BD0B490C48FEF7E2FC9E
:1059E00021460B4A0648182302F0CEFC094A044817
:1059F0003023502102F0C8FCEBE70020EAE700BFAB
:105A0000D4E303209C3B0E00783B0E0060E50320AE
:105A100050E4032020E4032007EE900A9FED097A6A
:105A2000F8EEE77A67EE877A9FED077A87EE870AC6
:105A3000DFED067A70EE677AB2EE040A87EE800A2E
:105A4000704700BF00404E4500F07F450000FA431C
:105A500007EE900A10B59FED367AF8EEE77A2DED55
:105A6000028B67EE877A9FED337AC7EE878A86B01E
:105A70009FED317AC7EE287AB7EE007A77EEC77AD3
:105A80009FED2E7A87EE278AB5EEC08AF1EE10FAE6
:105A900046DDB0EE480A0AF067FEDFED297A9FED99
:105AA000297AA0EE277ADFED287A60EE277A67EE72
:105AB000807AA7EE807A17EE100A0BF045F90246BD
:105AC0000B46002021490BF0C1FA17A3D3E90023AC
:105AD0000AF0DAFF0BF088FC04464FF47A7007F006
:105AE000DDFA18EE900A0BF02FF902460B4620461D
:105AF000CDE904230BF028F9CDE9020118EE100AD4
:105B00000BF022F9DDE90423CDE900011049114829
:105B1000FEF748FC00EE104A06B0BDEC028B10BD4B
:105B20000D4CDAE7AFF30080666666666612714078
:105B300000404E4500F07F4500401C4500401C469B
:105B40005981823944636C3A6F635B340000F03FE3
:105B5000DE3B0E0060E50320CDCCC7C210B586B099
:105B6000002202A90720029207F0EAF8B8B9029CC5
:105B70000CB1236923B9194A00210A2007F0A0F8C3
:105B80000023ADF80E300C23ADF80C3001AB0493BC
:105B90000423059303AA2369012120469847104A4C
:105BA000104C527A0028A8BF0198207332B10E48D9
:105BB00007F0A0FF4FF4FA7007F070FA0A4807F0F8
:105BC00039FFFDEEC07A17EE900A3C28D4BF0020C2
:105BD0000120C4ED027A06B010BD00BFF1C80D006F
:105BE00050E4032020E4032068E40320D3B5134CE1
:105BF000012101A809F065FDD4E900670022002316
:105C0000304639460BF06AFB30B90D4B0022304666
:105C100039460BF081FB58B101A809F0E5FD0123DD
:105C20002373002401A809F05BFD204602B0D0BD1B
:105C300001A809F0C2FD0124F4E700BF20E403201D
:105C40000080424030B5194D0FCD99B004AC0FC45F
:105C50000FCD0FC495E8030084E8030014490EA893
:105C600007F070FA0EA807F0C0FA04460EA807F075
:105C7000D7FA0EA810EE105A07F002FB18AB10EE80
:105C8000100A03EB84040BF05FF8CDE9020128460B
:105C90000BF05AF8CDE90001064A54F8503C06488A
:105CA000402107F09FF919B030BD00BF9C3C0E00A9
:105CB0001CE50320043C0E005EE10320424B37B597
:105CC0001D88424C012128460AF0C9FB642007F0D8
:105CD000E5F93F4B18880AF0EEFBFFF79DFE10EE4A
:105CE000100A0BF031F83B4AC4E90001CDE900018C
:105CF0001021394807F076F9374A38493848FEF715
:105D000051FB384B18880AF0D6FBFFF7A1FE10EEC6
:105D1000100A0BF019F82F4AC4E90A01CDE9000175
:105D20001021314807F05EF92F4A30492C48FEF720
:105D300039FB2F4B18880AF0BEFB64230093002325
:105D4000194640F68A6207F09DF90AF0EBFF294AEE
:105D5000C4E90801CDE900011021274807F042F904
:105D6000254A26491E48FEF71DFB2846244D0021E2
:105D70000AF075FBE8680AF0E7FF02460B46D4E933
:105D800008010BF0ABFA70B101231E4923761448C9
:105D9000FEF708FBFFF7E2FEFFF728FFFFF752FFD1
:105DA000012003B030BD68690AF0CEFF02460B4601
:105DB000D4E90A010BF0B0FA18B101231249237695
:105DC000E5E72076E6E700BF6A380E0020E403200E
:105DD0006E380E001D3C0E004EE10320253C0E00E7
:105DE00060E503206C380E00AEE10320403C0E005D
:105DF00068380E00573C0E009EE103205F3C0E0009
:105E000050E40320733C0E00863C0E000148002144
:105E100007F0C2BD68E40320704710B52021044696
:105E20000AF0DAFB204610BD0EB410B58DB00FAAF3
:105E3000016852F8044B039200232020CDE90403AB
:105E4000CDE90042012004AA06F05AFF0DB0BDE8DA
:105E5000104003B070470EB410B58DB00FAA0168A2
:105E600052F8044B039200232020CDE90403CDE92E
:105E70000042322004AA06F043FF0DB0BDE81040F6
:105E800003B0704710B50272FF2242810022C0E9C0
:105E9000032242610276C261024A034C1060C0E9EB
:105EA000004110BD74E40320C83E0E002DE9F84304
:105EB0009DF820800446894616461F46B8F1000F1B
:105EC00002D0406807F0B0FE217A606807F089FED2
:105ED0006068036849469B6898476068002107F03E
:105EE0009FFE054600BB0123217A60683A4607F011
:105EF00066FE8742034609D13744BE421CD0606823
:105F000003685B69984706F8010BF6E70B490C48F4
:105F10004A46FFF7A0FFB8F1000F02D0606807F013
:105F20008CFE2846BDE8F8830346064904484A46E5
:105F3000FFF791FF0025EEE70125ECE7C43C0E00DA
:105F400070E40320E93C0E0007B500930123FFF73E
:105F5000ADFF03B05DF804FB73B54389FF2B044626
:105F600010D0194E194D06F0CBFCB0F57A7F09D24E
:105F700060890AF08DFA012804D031462846FEF7E0
:105F800011FAF0E701230DF1070228212046FFF75F
:105F9000DBFF30B90D480E49FEF704FA002002B0CD
:105FA00070BD9DF80730182BF4D101230DF10702C5
:105FB00029212046FFF7C8FF0028EBD09DF80730C5
:105FC000052BE7D1EBE700BF0D3D0E0070E4032089
:105FD000223D0E002DE9F0419DF8188004460F4641
:105FE00015461E46B8F1000F02D0406807F01CFEAF
:105FF000217A606807F0F5FD6068036839469B68A0
:1060000098472E44B542606805D0036815F8011B17
:106010009B689847F6E7012107F002FE034670B13E
:10602000084909483A46FFF716FF0025B8F1000F66
:1060300002D0606807F001FE2846BDE8F081012526
:10604000F4E700BF2F3D0E0070E403201FB58DF86C
:106050000F2000930DF10F020123FFF7BBFF05B0E6
:106060005DF804FBF8B50A460C4605461A491B487C
:10607000FEF798F9002CB8BFEC687CB901232246E2
:106080001B212846FFF7E2FF154902460646134842
:10609000FFF7CAFEEC606C613046F8BD032C19DDD9
:1060A000A7101F2FA8BF1F27BA0062F07C02012390
:1060B000D2B21B212846FFF7C9FF3A4603460949D9
:1060C00006460648FFF7B0FE4FF4FA635F43EC6004
:1060D0006F61E1E70127E7E7543D0E0070E403201C
:1060E0005E3D0E007A3D0E000B46074902460868E9
:1060F00048B1002B08BFB2F5006F04D1C36813B1DB
:106100000021FFF7AFBF704774E403202DE9FF4182
:106110009DF82880054616461F46B8F1000F04D0AA
:106120004068019107F080FD0199019100230DF174
:106130000F022846FFF708FF044660B19DF80F30B4
:1061400003EA06023A43934205D001990023284608
:10615000FFF77CFF0446B8F1000F02D0686807F033
:106160006CFD204604B0BDE8F081000037B5044660
:106170000A463F480D463F49FFF756FE606807F064
:1061800053FD00231A460F212046FFF75FFF00232F
:10619000132210212046FFF759FF00233C22112132
:1061A0002046FFF753FF0023E02212212046FFF78D
:1061B0004DFF0023262213212046FFF747FF00232F
:1061C0001A4617212046FFF741FF15F0010348D07A
:1061D00000230093E322232318212046FFF796FF94
:1061E00000231A4619212046FFF730FF00231A46E4
:1061F0001A212046FFF72AFF00231A461B212046BA
:10620000FFF724FF15F0020F4FF000030CBF1A46F2
:1062100088221C212046FFF719FF00231A4620215F
:106220002046FFF713FF0023F02221212046FFF72D
:106230000DFF00231A4626212046FFF707FF002303
:10624000802227212046FFF701FF00231A46302134
:106250002046FFF7FBFE606807F0EFFC012003B06B
:1062600030BD232218212046FFF7F0FEB8E700BF1B
:1062700070E403209E3D0E0013B514460DF1070295
:10628000FFF762FE28B19DF807301C420CBF0120C9
:10629000002002B010BD13B514460DF10702FFF740
:1062A00053FE28B19DF807301C4214BF0120002086
:1062B00002B010BD07B5D2430093D2B20023FFF75E
:1062C00025FF03B05DF804FB37B501230DF107028C
:1062D0000F210446FFF738FE054638B91E491F480E
:1062E000AD22FFF7B8FD284603B030BD9DF807305A
:1062F00013F0200F4FF001030BD02022E3610F2198
:106300002046FFF7D7FF164A16491448FEF74AF809
:10631000E9E7082217212046FFF7BDFF18B1022345
:10632000114AE361F0E79DF807301A0709D5032306
:10633000E361082201230F212046FFF7BBFF0B4A30
:10634000E2E75B07CFD50422E26101230F2120465B
:10635000FFF7B0FF064AD7E7E23D0E0070E40320E6
:10636000B33D0E00013E0E00BC3D0E00CC3D0E00C4
:10637000DC3D0E0007B500931346FF22FFF7C6FE73
:1063800003B05DF804FB2DE9F3479DF828A005460E
:106390000C4691461F46BAF1000F02D0406807F044
:1063A00043FC07B3202F3E4628BF20267F2C26D84B
:1063B0003319802B01D9C4F18006012304223F2127
:1063C0002846FFF777FF002364F07F0100934A46D9
:1063D0003346C9B22846FFF769FD804628B13444E8
:1063E000BF1BB144DDE74FF00108BAF1000F02D046
:1063F000686807F022FC404602B0BDE8F087012340
:1064000004223F212846FFF7B5FFDCE72DE9F347DB
:106410009DF828A005460C4691461F46BAF1000F8C
:1064200002D0406807F000FC07B31F2F3E4628BF8C
:106430001F267F2C26D83319802B01D9C4F1800662
:10644000012304223F212846FFF734FF002364F094
:106450007F0100934A463346C9B22846FFF7BAFD8A
:10646000804628B13444BF1BB144DDE74FF001083A
:10647000BAF1000F02D0686807F0DFFB404602B0B7
:10648000BDE8F087012304223F212846FFF772FF71
:10649000DCE7000030B585B00D68D1E90432039522
:1064A0004D6802958D680195C968009101330449D2
:1064B00002F26C72044609F0B1FB204605B030BD13
:1064C000123E0E0003110A2200F00F0002FB03002F
:1064D000704738B5044600781546FFF7F3FF0860AB
:1064E0006078FFF7EFFF4860A078FFF7EBFF886068
:1064F000E078FFF7E7FFC8602079FFF7E3FF013896
:1065000008612DB9651D2878FFF7DCFF886138BD6B
:106510006079FFF7D7FF6430A51D4861F3E70000FD
:1065200070B5012388B00D461A4610210446FFF7C6
:10653000A3FEF0B108230126204600960DEB0302CE
:106540000021FFF7B3FC044698B1324629460DF10D
:106550000900FFF7BEFF04A8FFF79CFF0848049A54
:106560000849FDF71FFF04A809F0EAF9204608B022
:1065700070BD2422002128460BF00AF80024F5E71C
:1065800070E40320303E0E0030B58BB00D4601A9FB
:10659000FFF7C6FF044620B101A806F06BFDC5E970
:1065A000000120460BB030BD10B5044688B011B1D3
:1065B000406807F0E7FA2046FFF7CEFC70B32046AC
:1065C000FFF782FE01231A4610212046FFF754FEF2
:1065D000D8B109F0FDFCC0B902A92046FFF7D4FFED
:1065E000DDE9020109F0FBFB0F4B10491B6800932A
:1065F00004A8DDE9022309F0A9FC0D48049A0D491D
:10660000FDF7D0FE04A809F09BF90B4A00230021F6
:106610004FF4006006F0B6FB08B010BD074904480F
:10662000FFF719FCF1E700BFC8E10320B4E5032040
:1066300070E403203E3E0E00E9600D005B3E0E005C
:106640000A2290FBF2F302FB130093FBF2F102FB30
:10665000113140EA0110C0B2704770B505460068BC
:106660000C461646FFF7ECFF20706868FFF7E8FF5E
:106670006070A868FFF7E4FFA070E868FFF7E0FF2C
:10668000E07028690130FFF7DBFF20712EB9661D2D
:10669000A869FFF7D5FF307070BD6A69642392FB6B
:1066A000F3F003FB1020FFF7CBFFA61D6071EFE7AF
:1066B000F0B587B0054602A816460C46FFF7EAFE7D
:1066C0001E48029A1E49FDF76DFE02A809F038F92E
:1066D00016B1686807F0A8FA204601220DF10901F9
:1066E00000278DF80870FFF7B8FF01231A46102124
:1066F0002846FFF73FFE0446E8B1082300970DEB5C
:10670000030239462846FFF765FC044660B10123C1
:106710001A4610212846FFF7CDFD16B1686807F02C
:106720008CFA204607B0F0BD4FF48D72054903483E
:10673000FFF791FBF1E74FF48F72F7E770E4032066
:10674000733E0E00813E0E0013B504466846CDE947
:1067500000230AF0E3FE9DF8102001462046FFF7D3
:10676000A7FF02B010BD0000F0B5057E89B0044659
:1067700075BB09F02DFC58B30026002704A9284654
:10678000CDE9046706F08EFB10B30125257609F0EC
:106790003CFC00950246C3172046CDE90223FFF7D3
:1067A000D3FF02A92046CDE90267FFF7EDFE124BA9
:1067B00012491B68009304A8DDE9022309F0C6FB17
:1067C0000F48049A0F49FDF7EDFD04A809F0B8F849
:1067D000636973B106F094F82369C01A636998423B
:1067E00007D306F08DF84FF0FF3120612046FFF708
:1067F00039FC09B0F0BD00BFC8E10320B4E50320B7
:1068000070E403209C3E0E00014B024A1A60704760
:1068100070E40320B23E0E00022A06D0032A02D002
:10682000012A00D10160002070470B680360FAE77D
:1068300010B5012303748368044643B1C0689847C8
:10684000012363740020BDE8104006F029B80068F9
:106850000028F5D083680BB909F0FEFEC368EEE7A7
:1068600038B50568044635B12846FEF739F91021D8
:10687000284609F0B1FE20461421BDE8384009F051
:10688000ABBE10B503680446ABB1586805F0B8FF5D
:1068900088B923685A7C12B9586805F0B9FF236893
:1068A000586805F0BDFF20680023236018B1BDE8DB
:1068B0001040FFF7D5BF10BD054A026000224260BC
:1068C000027380F8BD22C0F8C822C0F8D0227047F9
:1068D000F43E0E0010B5074C236843B94FF43570F1
:1068E000FDF7D9FB034608B1FFF7E6FF23602068F8
:1068F00010BD00BF78E4032038B50446406890B16D
:1069000002232373FFF7BDFF656855B12846FFF7E3
:10691000B8FF286808B1FFF7A3FF0421284609F053
:106920005BFE0023636038BD10B5054B0360044671
:10693000FFF7E2FF04F53070FEF7D2F8204610BDF5
:10694000F43E0E0010B50446FFF7EEFF20464FF46C
:10695000357109F041FE204610BDF0B5044689B0FE
:1069600000F10D0600F14E07237B1BB9012006F054
:1069700095FBF9E7237B022B62D0A06805F060FF4E
:10698000A06805F065FF94F8BD328DF800303A46F6
:106990003C23314606A806F03FFE069D6B7833B9CE
:1069A000237B022B03D0012006F078FBF5E7D4F817
:1069B000C8321BB3002006F0F5F920B16B7813B98B
:1069C00006F048FAFAE72B78D4F8D0220592591E3F
:1069D0004B424B418DF80B30D4F8C832CDE90367F8
:1069E0000BB909F039FE05AB0093D4F8CC5204ABD7
:1069F00003AA0DF10B0104F53070A847A06805F05B
:106A00001FFF237B022B15D0D4F8C8320025C4F811
:106A1000D05233B104F53071032208469847C4E9D7
:106A2000B2550023A068237305F012FF07A8FDF7F5
:106A30005DFE99E7A06805F00BFF07A8FDF756FE7D
:106A400009B0F0BD0068FFF788BF00002DE9F743EB
:106A500006468846142026491746994609F0F2FD55
:106A6000044630B10022C0E90022C0E902220274CB
:106A700042743460002C31D01D49102009F0E2FD31
:106A8000054668B10023836001463846FEF77EF96B
:106A9000BB68AA68BA60AB60EA68FB68EB60FA6042
:106AA0002768256037B13846FEF71AF810213846B6
:106AB00009F092FD3068036883B10A9B4A46CDE92C
:106AC000000341460B4B043005F092FE30B93368A9
:106AD0001B7C4BB9012005F003FFF8E73068002369
:106AE000336008B1FFF7BCFE304603B0BDE8F08369
:106AF000A4490E0031680D0030B5436887B00446E4
:106B0000C3B9083005F094FE0B4B059304200B4BE2
:106B100002940493FDF7BFFA054638B14FF4406381
:106B200000930749022302AAFFF790FF656002A8BD
:106B3000FDF7D6FF07B030BD456A0D0019680D009E
:106B4000D83E0E002DE9F043044685B080680C9FC6
:106B500098460D46164605F073FE63681BB1237B0D
:106B600003F0FF0933B1A06805F072FE002005B004
:106B7000BDE8F083A06805F06BFE002D3DD04122FA
:106B8000294604F10D000AF0A8FD84F84D908EB35B
:106B900040F26F22314604F14E000AF09EFD84F867
:106BA000BC9200230293BB6804F530753BB102220E
:106BB000394668469847FB680393BB6802932946A9
:106BC0006846FEF7E3F8029BD4F8C822C4F8C8323E
:106BD000039B02926846D4F8CC22C4F8CC320392CC
:106BE000FDF77EFF0D9BC4F8D032012084F8BD82F2
:106BF0002073BCE784F84E60D3E72846B7E700006F
:106C000010B5054B0360037C04461BB9406808B10E
:106C100006F0C8F9204610BD043F0E0010B504462A
:106C2000FFF7EEFF2046142109F0D6FC204610BDE8
:106C300010B5074B0360037C04461BB9406908B1DB
:106C400006F0B0F92046FFF7DBFF204610BD00BF7D
:106C5000143F0E0010B50446FFF7EAFF20462C2132
:106C600009F0BAFC204610BD10B5C0E9011200229F
:106C7000C260012202744361024A029B0260C36146
:106C800010BD00BF143F0E007047704701207047D1
:106C9000012A08BF01600020704710B50821044692
:106CA00009F09AFC204610BD10B51021044609F0E9
:106CB00093FC204610BD000010B5054B044640F87B
:106CC0001C3B08F03DFE201D08F03AFE204610BD9A
:106CD0007C3F0E0010B50446FFF7EEFF204658211A
:106CE00009F07AFC204610BD10B5044B044640F86C
:106CF000043BFFF7E1FF204610BD00BF4C3F0E00F4
:106D000010B50446FFF7F0FF2046602109F064FC4F
:106D1000204610BD20F00203012B03D0431F584230
:106D2000584170471846704708B1FDF7B8B9704729
:106D300008B548B1B0F1005F01D309F087FCBDE8A8
:106D400008408000FDF7A7B908BD0B6803604B68D9
:106D5000436013B15A6801325A60704790F90420B9
:106D600091F904309A4213DB10DC90F9052091F977
:106D700005309A420CDB09DC90F9062091F90630C7
:106D80009A4205DBCCBF01200020704701207047EC
:106D90004FF0FF3070470000024A02604A684260CC
:106DA000704700BF5C3F0E0091F90420027191F919
:106DB0000520427191F90620827191F90720C27174
:106DC000704738B50C46054600F11C012046FFF718
:106DD000C5FF002809DB05F124012046FFF7BEFFAF
:106DE0000028D4BF0020012038BD4FF0FF30FBE762
:106DF00038B504460D460430043108F028FE05F18C
:106E0000140104F11400FFF7CFFF05F11C0104F198
:106E10001C0008F01CFE05F12C0104F12C00FFF70A
:106E2000C3FF95F9383084F8383095F9393084F853
:106E3000393095F93A3084F83A3095F93B3084F896
:106E40003B3005F13C0104F13C00FFF7ADFF95F943
:106E5000483084F8483095F9493084F8493095F93C
:106E60004A3084F84A3095F94B3084F84B3005F1BC
:106E70004C0104F14C00FFF797FF95F8543084F86B
:106E80005430204638BD4A69036862F31603036034
:106E90000B695A1C438862F3CA134380CA68C3F360
:106EA000072362F3C703C370704710B504468CB064
:106EB0002422002103A80AF06BFB2368C3F3160306
:106EC00008936388C3F3C313013B0793E37803A8D4
:106ED000DB08069306F0CEF8CDE9000103A9684669
:106EE00006F0B8F809980CB010BD30B504468DB066
:106EF00024220D4603A800210AF04AFB2368E1780A
:106F0000C3F3160308936388C3F3C313013B05EB74
:106F1000D10503A80793069506F0ACF8CDE900016A
:106F200003A9684606F096F803A92046FFF7ABFFD1
:106F30000DB030BD0368C1F31602C3F316039342CC
:106F400013D310D84288C1F3C353C2F3C3129A4279
:106F50000BD308D8C378DB08B3EBD16F05D38CBF54
:106F6000012000207047012070474FF0FF3070472C
:106F7000024A026000224260704700BF5C3F0E0080
:106F800030B5002387B0838083710D4605AB009335
:106F90001349044604AB03AA284606F01BF803284D
:106FA00007D1039B2371049B6371059BA37107B0F9
:106FB00030BD0C4904AB03AA284606F00BF80228A2
:106FC00004D1039B2371049B6371F0E7064903AA74
:106FD000284605F0FFFF012804BF039B2371E6E765
:106FE0001C3F0E001F3F0E005B3D0E0010B5044B12
:106FF0000360002304464360FFF7C2FF204610BD34
:107000005C3F0E0038B500257F2304460370C0E9BD
:107010000155C0E90355C0E905550A491C30FFF781
:10702000E5FF094904F12400FFF7E0FFC4E90B552F
:107030000649656304F1380008F0CDFCA5642046DC
:1070400038BD00BF253F0E002E3F0E00C3430E008B
:1070500090F9043090F9052090F90610002BB8BF84
:107060000848C2EB02124FEA8202BDBF00FB0320B8
:10707000401840424FF46160A4BF00FB032358183E
:10708000704700BFF0F1FFFF90F9073043B990F966
:1070900004308B6090F905304B6090F906300B603E
:1070A000704790F9073030B5B3B990F904508C6847
:1070B0002C44D1E900328C6090F90540002DB5BF19
:1070C000121B12194A604A60B5BF90F9062090F968
:1070D00006209B1A9B180B6030BD38B544680546E6
:1070E000AB68A34207D02046FFF724FF04340028F2
:1070F000F6D1012038BD0020FCE738B5046905460B
:107100006B69A34207D02046FFF714FF0434002820
:10711000F6D1012038BD0020FCE773B505460E46C8
:10712000FFF7EBFF90B901A80191FFF7BEFE2B78A6
:10713000314643FA00F42846FFF7CFFF04F001047C
:10714000002C08BF0446204602B070BD0024FAE7B8
:107150002DE9F84300244568804626462746D8F89E
:1071600008309D421ED067F3160966F3DA5964F3BE
:10717000DF69B9F1000F09D12F686E88EC78C7F389
:107180001607C6F3C316E4080435E8E767F31601EB
:1071900066F3DA5164F3DF612846FFF7CBFE00287F
:1071A000EADCF1E7002067F3160066F3DA5064F3D7
:1071B000DF60BDE8F8830000054A08B502600022E0
:1071C000034642600830FFF7D3FE184608BD00BFF3
:1071D0006C3F0E000023436083818373704700007F
:1071E00030B5044687B00D4611B10B784D2B03D056
:1071F0002046FFF7EFFF1BE005AB00930F4904AB00
:1072000003AA284605F0E6FE0328F1D1039B23716B
:10721000049B6371059BA3712F2128460AF0FDF999
:1072200040B1411C04F10800FFF7AAFE0123E371FD
:1072300007B030BDA081A073F8E700BF373F0E0054
:10724000104B114910B5044640F8043B08F0C3FB4D
:1072500004F11400FFF78CFE0B4904F11C0008F048
:10726000BAFB04F12C00FFF783FE04F13400FFF7B2
:10727000A3FF04F14400FFF79FFF002384F854307C
:10728000204610BD7C3F0E00C3430E002DE9F74F92
:10729000044608460AF0EAF900250646019004F182
:1072A00034083F49019801AA0BF0F2F80146002882
:1072B00062D0012D05F1010353D0022D56D0002DCF
:1072C00046D1024692F80090B9F1400F1546174694
:1072D00002F10102F6D800222A7004F11C0008F025
:1072E000D8FB012285F8009084F854202A786AB3EC
:1072F00097F800A00AF1FF323F2AB946BB4607F1D2
:107300000107F5D9002304F12C0789F8003029463C
:107310003846FFF735FE89F800A0BAF1000F15D006
:107320005D461BF801ABBAF1400FF9D800222A7074
:107330004946201D08F0ADFB85F800A004F11400BB
:10734000BAF1000F06D02946FFF71AFE0125A8E77B
:107350001D46A6E73946FFF727FD237E013B23762E
:10736000F4E74046FFF73CFF02259AE704F14400AA
:10737000FFF736FF032594E794F93B3043B194F9C6
:107380004B202AB904F13400FFF724FF84F854207D
:10739000304605F007FE94F8540003B0BDE8F08FC6
:1073A000413F0E0038B5134B04460D4640F8043BF0
:1073B000114908F010FB04F11400FFF7D9FD0E4944
:1073C00004F11C0008F007FB04F12C00FFF7D0FDCE
:1073D00004F13400FFF7F0FE04F14400FFF7ECFE87
:1073E000002384F8543029462046FFF74FFF2046FB
:1073F00038BD00BF7C3F0E00C3430E0008B50346F6
:10740000FFF7B6FD8A681A714A685A710A689A715C
:10741000184608BD13B5074B0360002304464360BC
:107420006846FFF7EBFF69462046FFF7BDFC2046A4
:1074300002B010BD5C3F0E0091F9073043B991F9DD
:107440000430836091F90530436091F906300360A0
:10745000704707B50023014601A80193FFF713FD0C
:10746000019803B05DF804FB194B70B504460D4656
:1074700040F8043B043108F0F9FA05F1140104F175
:107480001400FFF789FC05F11C0104F11C0008F051
:10749000EDFA05F12C0104F12C00FFF77DFC0D4EF7
:1074A000AB6BA36305F13C01666304F13C00FFF79D
:1074B00073FCAB6CA364666405F14C0104F14C00F1
:1074C000FFF76AFC95F8543084F85430204670BDBC
:1074D0007C3F0E006C3F0E00F8B50C4651F8043BA3
:1074E000074640F8043BFFF7BFFFD4E9182304F137
:1074F0006806C7E918230FCE07F168050FC50FCE40
:107500000FC533682B60D4E9242304F19806C7E93A
:1075100024230FCE07F198050FC50FCE0FC5336892
:107520002B60D4E93023C834C7E930230FCC07F1EE
:10753000C8050FC50FCC0FC523682B603846F8BDB2
:1075400010B50446383008F0FBF92069FFF7ECFB72
:107550006068FFF7E9FB204610BD000038B5094D13
:107560002B6863B96020FCF796FD044630B1064BEA
:1075700040F8043BFFF764FE6423E3652C60286851
:1075800038BD00BF7CE403204C3F0E0005F072BD07
:1075900001390B2915D8DFE801F016081606160682
:1075A0001616061606161E20704783070DD1642294
:1075B00090FBF2F302FB130000280CBF1C201D20DF
:1075C0007047002070471F2070471C207047F8B597
:1075D0000123CB6090F90430013B0B610023C1E92A
:1075E000003306460C4617468B602046FFF7CEFF59
:1075F00096F90630A2699A4203D0E3680133E3604A
:10760000F3E796F90550012D13D0E3686069013D59
:10761000C5EBC5051D44E56096F9041000F26C70D9
:10762000FFF7B6FF8542C4BF073DE5602046FFF780
:10763000ADFF214606F10800FFF726FD3846FFF7AB
:1076400030FD2046BDE8F84005F014BDF0B590F8D7
:10765000583085B004462BB9FFF780FF011D201D6F
:10766000FFF7C6FB94F93F30002B69D0D4E918230B
:1076700004F1980739463E4602A8CDE9022305F0F9
:10768000E9FC0FCE04F1C8050FC50FCE0FC5336856
:107690002B6004F1300102A8FFF77EFB02AA3946F5
:1076A00004F13800FFF793FFC4E9240104F1180145
:1076B00002A8FFF771FB02AA04F1C80104F1480017
:1076C000FFF785FFD4E924670B468642024677EB35
:1076D0000301C4E93023D4E9180124DAB04271EB84
:1076E000070519DA002323602068FFF713FB04F174
:1076F0006801D4E91867019120BB04F13000FFF75D
:10770000A7FC361A67EBE077019902A8CDE902677A
:1077100005F0A0FC05B0F0BD904271EB0303B4BFCF
:1077200001230223DFE7904271EB030301DA032315
:10773000D9E7B04271EB0703B4BF04230523D2E7B6
:107740000623D0E704F11800D9E72DE97043044679
:107750000E460FCCDCB001AD0FC50FCC0FC52368B2
:107760002B6001A805F086FC044606F12C000D46AE
:10777000FFF76EFC96F93B3014EB000845EBE0791F
:107780001BB3062321A82093FFF75AFD31460AA810
:10779000FFF76AFE0AA921A8FFF72AFB20A8CDE976
:1077A0003889FFF753FF0AA8FFF786FA2098FFF7FA
:1077B000B1FA38B106F11400FFF74AFC14EB0008E7
:1077C00045EBE07921A8FFF777FA404649465CB0DF
:1077D000BDE8708330B591F9073097B00446C3B95E
:1077E00000F168056846FFF7D7FA69462846FFF7B3
:1077F00023FE211D6846FFF737FE69462846FFF73E
:10780000A4FFC4E918016846FFF756FA2046FFF7BF
:107810001DFF17B030BD000030B5D0E918320B4D58
:107820005B194FF0000585B045EB0202C0E9183244
:1078300004460191FFF70AFF019902A8FFF7ACFA8D
:1078400002A92046FFF7C6FF05B030BD80510100F8
:107850002DE9F0418AB0174606460D462422002144
:1078600001A81C4609F094FE062F29D82946304667
:10787000FFF78EFE002C804624DDA6F26C76013DDB
:1078800006960595012301A80493FFF77FFE079A4A
:10789000049BBA4201D00133F5E700210122944252
:1078A00006D101B10493049C20460AB0BDE8F081E2
:1078B0000733434504DC0132062A4FF00101EED1C3
:1078C0000024F1E7F0D0013DCDE90405A6F26C7685
:1078D000069601A8FFF75AFE079B0499BB4202D007
:1078E00001390491F5E7002001226442944203DC4F
:1078F0000028D8D00491D6E707390029E0DD01320D
:10790000062A4FF00100F1D1DAE700002DE9F04638
:10791000CDB0044610A80D46FFF7DEFD002320463B
:107920000293FFF715FC58BB2AA8FFF792FD0290BF
:10793000FFF714FEC16D02A8FFF7D7FADFF80CA21B
:107940002AA8FFF786FD02990390064603A8FFF7D1
:10795000F1FA002800F3F28031462046FFF7DDFB04
:107960000746002800F09480A36C013B042B00F232
:107970008F80DFE813F0070007009600B800D500FD
:107980000290DBE72AA907A8FFF738FD07A92046E0
:10799000FFF717FA00280DDA04F11C0107A8FFF71A
:1079A000FBF907A910A8FFF715FFDDE92823C5E9B2
:1079B000182394E06CD1A36C012B25D0022B67D146
:1079C00004F11C0104A8FFF7E7F904F12409494672
:1079D00004A8FFF7C3F900285ADC04A907A8FFF799
:1079E000DBF907A910A8FFF7F5FED5E91801DDE9D5
:1079F0002823904271EB030341DB9DF81430E26AC7
:107A000013448DF81430E2E7E26A94F9213093FBD5
:107A1000F2F63C21514302FB1636DDE928235218C9
:107A200043EBE17310A8CDE92823FFF70FFEDDE952
:107A3000282307A904A8CDE9042305F00BFB2B9B01
:107A4000E16A9B1B93FBF1F201FB1233089A07A832
:107A5000D21A94F922300892079305F00BFBCDE976
:107A6000280110A8FFF7F2FD2AA904A8FFF7D2FC0D
:107A700004F1240104A8FFF771F9002808DA2AA804
:107A8000FFF7E7FC01462046FFF747FB00288CD1B3
:107A9000514607A8FFF7AAFA07A910A8FFF7BCFEEE
:107AA0004EE72E992F98D4E90B32013100F26C7019
:107AB000FFF7CEFE2D9B9842EAD104F11C0107A8E6
:107AC000FFF76AF907A910A8FFF784FEDDE928018E
:107AD000D5E9182382428B41DADAC5E91801284634
:107AE000FFF7B4FD2BE0E66A002E08DA2E992F98F6
:107AF000013100F26C70FFF74BFD3044461C2AA8A0
:107B0000FFF7A7FCB6EBD06FC2D12AA907A8FFF7F1
:107B100075FC07A92046FFF754F90028B8DCCCE72C
:107B20002AA907A8FFF76AFC04F11C0107A8019124
:107B3000FFF714F900280199AADCC0E7002711A873
:107B4000FFF7BAF838464DB0BDE8F086253F0E0085
:107B500037B58D6804466846FFF7F7F86A46294648
:107B6000204606F093FB01A8FCF7C0FD204603B0B9
:107B700030BD37B5CD6804466846FFF7E6F86A467B
:107B80002946204606F05EFB01A8FCF7AFFD204623
:107B900003B030BD37B50D6904466846FFF7D5F828
:107BA0006A462946204606F09CF901A8FCF79EFD8E
:107BB000204603B030BD70B5D1E90036F61A002377
:107BC000C0E9003304468360B0100D46FFF7B0F8FB
:107BD000D5E90053C4E900000644A6602A460146E0
:107BE000934205D009B116680E6004310432F7E7FC
:107BF0005B1B18446060204670BD38B50D4611F817
:107C0000043B044600F8043BFFF7D5FF05F11001E3
:107C100004F11000FFF7CFFF204638BD38B5044609
:107C20000D46FFF7EAFF05F11C0104F11C00FFF708
:107C3000B3F805F1240104F12400FFF7ADF8EB6A75
:107C4000E3622B6B23636B6B636305F1380104F113
:107C5000380007F00BFFAB6CA364204638BD2DE95C
:107C6000F043D0F82080D1B081460C46154600265E
:107C70000027D9F82430434529D0414601A8FFF711
:107C8000CDFFAB680BB908F0E7FCEB6801A928460B
:107C90009847B0B1214614A8FFF71EFC14A901A80B
:107CA000FFF734FEDDE92C2310B156EA070103D0BB
:107CB000B24273EB070101DA16461F4615A8FEF71C
:107CC000FBFF01A8FFF73CFC08F14C08D1E756EA9E
:107CD000070308D02046C4E91867FFF7B7FC012066
:107CE00051B0BDE8F0830020FAE700001FB5084B53
:107CF00003936A46074B0293FFF7B1FF029B0446CA
:107D00001BB16946032208469847204604B010BDBF
:107D10008D6C0D00916C0D002DE9F0470668BCB02C
:107D200007468A46002400257B689E421CD0337C8F
:107D3000C3B151466846FFF7CFFB69463046FFF7AF
:107D4000D5FF40B154EA0503DDE9188905D0A04507
:107D500079EB050301DBA046A94601A8FEF7ACFFBD
:107D600044464D463036DFE7204629463CB0BDE864
:107D7000F0872DE9F0470668BCB007468A46002424
:107D800000257B689E421DD033699B0718D551465C
:107D90006846FFF7A1FB69463046FFF7A7FF40B1F1
:107DA00054EA0503DDE9188905D0A04579EB050300
:107DB00001DBA046A94601A8FEF77EFF44464D46DA
:107DC0003036DEE7204629463CB0BDE8F0870000AB
:107DD0002DE9F04FDFF85CB00668BDB007468A4673
:107DE000002400257B689E421FD05946304607F08C
:107DF000CDFEC0B151466846FFF76EFB694630467E
:107E0000FFF774FF40B154EA0503DDE9188905D096
:107E1000A04579EB050301DBA046A94601A8FEF7C2
:107E20004BFF44464D463036DCE7204629463DB000
:107E3000BDE8F08F2B400E0081422DE9F041044651
:107E40000E4622D0D1E900580068A3681B1AA8EB9F
:107E500005079B10B3EBA70F4FEAA70118D20846FE
:107E6000FEF766FF06460346A84505D00BB12A6813
:107E70001A6004330435F7E72068FEF755FF2660E3
:107E80003E44A66023681F4467602046BDE8F08139
:107E90006268121AB1EBA20F06D8A845F2D03A4692
:107EA000294609F05BFBEDE712B1294609F056FBC4
:107EB000D4E90032D11A33680B4471689942E1D099
:107EC0000AB11868106004330432F7E738B50D467C
:107ED00011F8043B044600F8043BFFF7ADFF05F141
:107EE000100104F11000FFF7A7FF05F11C0104F1D8
:107EF0001C00FEF759FF05F1240104F12400FEF7F0
:107F000053FF204638BD00002DE9F74FD0E9006946
:107F10003B4D3C4BA9EB0604A4106C439C428A46A3
:107F200007461146A84602D1374808F092FB012CBB
:107F3000224638BF0122A418AAEB06055DD254B12F
:107F40009C4228BF1C464C2060430091FCF7A3F8DC
:107F50000099834600E0A3461BEB050001D0FFF724
:107F60005DFE5B4631468A450AD033B11846019121
:107F70000093FFF753FEDDE900314C314C33F2E75B
:107F8000AD0808FB05FA2AF040454FF04C0A0AFB01
:107F900005FA06EB0A050AF14C0ADA44534629466B
:107FA000494513D1A9EB0505AD0808FB05F525F0FA
:107FB00040454FF04C0808FB05A5B046C8450FD01A
:107FC0004046FFF7BDFA08F14C08F7E71846019163
:107FD0000093FFF723FE0199009B4C314C33DFE700
:107FE00016B13046FCF75BF84C2000FB04B4C7E93F
:107FF00000B5BC6003B0BDE8F08F1C46A3E700BF2E
:108000001BCA6B286B28AF018C3A0E0038B5D0E93B
:108010000135AB4204460A4607D013B11846FFF7B4
:10802000FDFD63684C33636038BD1946FFF76CFF94
:10803000FAE730B597B0044603A801920D46FEF763
:10804000E1FF01230199159303A80E95FFF73EFF69
:1080500003A904F12000FFF7D9FF03A8FFF770FA86
:10806000204617B030BD00002DE9F047D1E90037B8
:108070001B4DFF1ABC1000236C43C0E900330646B9
:108080008846836008D0174B9C4201D908F0DEFA7D
:108090003846FCF700F804462744B760D8E900A743
:1080A000C6E90044D046A14647450BD0B9F1000FC0
:1080B00003D041464846FFF7B1FD09F14C0908F1EC
:1080C0004C08F1E7A7EB0A07BF087D4325F04045C0
:1080D0004C2000FB054474603046BDE8F08700BFCB
:1080E0001BCA6B286B28AF012DE9F0410746884673
:1080F000164615460446444513D07DB12146284610
:1081000007F0B4FC23692B61D4E9062304F12001B4
:10811000C5E9062305F12000FFF7A6FF303430350E
:10812000E9E7E01B04090448444324F0704430208C
:1081300000FB0460BDE8F081ABAAAA0A2DE9F74F65
:10814000D0E90068A8EB06042311334C5C43334BA1
:108150009C4205460F46934602D1314808F079FA11
:10816000012C224638BF0122A418A1EB060A50D2E6
:1081700044B19C4228BF1C4630206043FBF78BFF74
:10818000814600E0A14619EB0A0A11D05946504633
:1081900007F06CFCDBF81030CAF81030DBE906237E
:1081A0000BF12001CAE906230AF12000FFF75CFF6A
:1081B00039464A463046FFF797FF414600F1300204
:1081C0003846FFF791FF37468346474514D0D7E935
:1081D00008A35345019306D05046FFF7B1F90AF1C1
:1081E0004C0A019BF5E7386A08B1FBF758FF38469F
:1081F00007F0A6FB3037E8E716B13046FBF74FFF34
:10820000302000FB0494C5E9009BAC6003B0BDE8DE
:10821000F08F1C46B0E700BFABAAAAAAAAAAAA027E
:108220008C3A0E00F0B505688DB004460E466368C2
:108230009D422F4609D02846314607F0A7FC30352D
:108240000028F4D038460DB0F0BD2249684607F04A
:10825000C2FB002000210023CDE90601314668461B
:10826000CDE9083304930A9307F013FCD4E90153D2
:108270009D4220D075B16946284607F0F7FB049B64
:108280002B61DDE9062308A9C5E9062305F12000D5
:10829000FFF7EAFE63683033636020463146FFF73C
:1082A000C1FFDDE908450746A5420AD02046FFF791
:1082B00047F94C34F8E76A4629462046FFF73EFF67
:1082C000EBE7089808B1FBF7EAFE684607F038FBD1
:1082D000B8E700BFC3430E00704710B51021044635
:1082E00008F07AF9204610BD0368C9B29B681847A8
:1082F00030B5034DC0E90223C0E9005130BD00BFD5
:10830000B83F0E00406805F03DBC10B5044600685B
:1083100005F093FC204610BD2DE9F0418AB00446DB
:108320004068019005F080FC1E22002102A8A76889
:1083300009F02EF90026EFB123681E2FB84628BF9A
:108340004FF01E08DD6802AA434631462046A84782
:10835000054658B90A480B493246FCF723F801A8EC
:10836000FFF7D3FF28460AB0BDE8F081A7EB080766
:108370004644E0E701A8FFF7C8FF0125F2E700BF88
:1083800060E50320843F0E002DE9F7430446406872
:1083900001900D4616461F4605F046FCA7B1E16860
:1083A000606841F0500105F020FC290A6068FFF781
:1083B0009BFF29466068FFF797FF6068002105F082
:1083C0002FFC48B1002400E0012401A8FFF79DFF25
:1083D000204603B0BDE8F083202F217B6068B846BB
:1083E00028BF4FF020080123424641F0500105F01C
:1083F000E6FB08F0A9F803681B6998474045E1DBF4
:1084000006EB080908F0A0F803685B69984706F8CE
:10841000010B4E45F6D14544A7EB0807BEE72DE911
:10842000F74F0446406801900E4690461D4605F001
:10843000FBFB4FF00109B9F1000F2AD04DB3E16801
:10844000606841F0500105F0D0FB310A6068FFF729
:108450004BFF60683146FFF747FFA5F11E0A47460C
:10846000A6EB080B606817F8011B0368013D9B68C9
:10847000984755450BEB0706B84601D0002DF1D1C2
:108480006068012105F0CCFB0028D7D04FF000092F
:10849000D1E701A8FFF739FF484603B0BDE8F08FE8
:1084A0002DE9F0438BB00E4615468046406801909A
:1084B0001C4605F0B9FBAE4229D2264425448CB1B6
:1084C0001E2C2746D8F8003028BF1E27F61BD3F8ED
:1084D000089002AA3B4631464046ED1BC84748B9C2
:1084E000002400E0012401A8FFF70FFF20460BB095
:1084F000BDE8F083D8F8003002AAD3F80C902946E2
:108500003B464046C8470028EAD0E41BD7E7E9D9F4
:10851000002CE7D0D8F800301E2C274628BF1E2795
:10852000D3F8089002AA3B4631464046C847002887
:10853000D6D0D8F8003002AAD3F80C9029463B4692
:108540004046C8470028CBD03E443D44E41BDFE70B
:1085500003680A7883F8B120012183F8B0107047CE
:10856000022A06D0032A02D0012A00D1016000208D
:1085700070470B680360FAE7012A034602D10160E5
:1085800000207047022A04BFD1E90001C3E90001BD
:10859000F6E710B442680346541001EB6200D207BC
:1085A00048BF0A591B685DF8044B48BFD3581847A9
:1085B000D0F8C83001461BB1D0F8CC30C0301847D5
:1085C00070470000F8B5124D0846002A18BF15463E
:1085D0000F461E4609F067F8402817D8284609F0CC
:1085E00062F840F26E23984210D84330FBF755FDF5
:1085F000044648B1394600F8016B09F02FF82946C6
:1086000004F1420009F02AF82046F8BD0024FBE7F7
:10861000C3430E00F0B59FB00A4600230E46011D6D
:1086200008A800F005FE0898002109F0D3FF0546D0
:1086300008A807F085F9002D60D008A9284609F0A0
:10864000B7FF0C9B2E492F483246FDF7EDFB002269
:108650001146284609F0B4FF082206A9284609F069
:10866000CDFF0C9F4A2F39DD274B069A9A4235D110
:10867000264B079A9A4231D1A7F10802104605927B
:10868000FBF70BFD0446C0B127440146059A284676
:1086900009F0B4FF17F8093CABB9631C1846059301
:1086A00009F001F83F28059B0DD804F14202009221
:1086B000174914483246FDF7B7FB284609F070FF0A
:1086C00020461FB0F0BD13490E483246FDF7ACFB03
:1086D0004321204607F080FF0024EEE7BDF81E305E
:1086E00002939DF81D3001939DF81C3000930A49B8
:1086F000069B04483246FDF797FBEDE72C46DFE783
:10870000CC3F0E0080E403206376B63101084100BF
:10871000E03F0E0002400E0030400E002DE9F8430D
:108720008046284B48F8043B0446404600F098FC3D
:10873000022264230025C4E91B230823E367C4E95C
:108740002055C4E92255C4E92455C4E92655A56736
:108750002020FBF7A0FCE66FA067013E760800EB47
:10876000860907464FF40070FBF795FC00F500738F
:10877000C4E92503C4F888304FF4FA614FF47A73E2
:10878000C4E92D1347F2305347F82600C4F884009B
:10879000C4F88000C4F89000C4E92855C4E92A55FB
:1087A0000949C4F88C90C4F89C90C4F8B050C4F83F
:1087B000BC30C4F8C850404600F098FC2046BDE8E4
:1087C000F88300BF4C420E0075400E0038B5064CD1
:1087D00023683BB9D020FBF75EFC054608B1FFF7E4
:1087E0009DFF2560206838BD84E4032010B5D1E9E1
:1087F000002386B00021044604910AB9D90705D5A3
:10880000CDE902230F4B05930F4B049302AB93E882
:1088100003006A4682E8030094E8030083E803004B
:1088200092E80300049A84E80300A168A260059A14
:1088300004911846E168E2600591FCF751F9204681
:1088400006B010BD93850D0079850D0010B5036845
:108850000446586F04F01CF8204610BD10B502699C
:108860008368043A9342044602D00433A36010BDE7
:10887000C068FBF714FC63691A1D62615B68E36002
:1088800003F500722261F1E72DE9F04F87B004464D
:108890000190406FDFF8A890DFF8A8A003F0F0FF88
:1088A000DFF8A4B0D4F88030D4F89020934205D1FA
:1088B00001A8FFF7CBFF07B0BDE8F08F04F1780007
:1088C00004F104081F68FFF7C9FF404600F0A4FE4A
:1088D000002302464146064602A800F0A9FC029881
:1088E00040F2022109F076FE054602A807F028F8BA
:1088F000CDB108220DEB02012846CDE9029A09F01C
:108900008FFE07F1420008F0CEFE394600F1430227
:10891000284609F085FE284609F042FE07483246FF
:108920005946FDF781FA3146404600F0B5FE002F6A
:10893000B8D04321384607F04FFEB1E780E403206A
:108940006376B6310108410083400E00002908BF5C
:10895000B0F5006F38B505D0002908BF40280BD10D
:10896000092A09D105490648FDF75EFAFFF72EFFEF
:10897000BDE83840FFF788BF38BD00BFA0400E00FB
:1089800080E4032070B586B0044604F073FA48B959
:10899000434B02A9CDE9023004F1C000FFF726FFE6
:1089A00006B070BD94F8B2501DB1012384F8B33005
:1089B000F6E703F0A5FFD4F8A830C01AD4F8AC301D
:1089C0009842EDD3261D2946304600F031FE01467F
:1089D000C4F8A400002852D02046FFF71BFE05462D
:1089E000C4F8A000002835D003F08AFF02AE0025AD
:1089F0002C4BC4F8A800314604F1C0000293039543
:108A0000FFF7F4FED4E9283003F142020092264930
:108A1000264AA4F8B050A84208BF0A4601332449A8
:108A2000244884F8B350FDF7FFF9FDF753FFD4F85D
:108A3000A020214B0593CDE9006511461F4B029400
:108A4000049311F8013B4232FEF77CF83046FCF704
:108A500047F8A5E7D4F8A42019491648FBF7A2FC6B
:108A60000121304600F0E4FDD4F8A4102A46304637
:108A700000F01AFCD4F8A030002BB5D195E7D4F85B
:108A80008030D4F890209A4207D01B68C4F8A030F8
:108A900004F17800FFF7E2FEECE7C4F8A00084E7F9
:108AA0003D8B0D00958E0D00CF400E0048430E000B
:108AB000F0400E0080E4032051850D0061850D001B
:108AC000D3400E00C368CA689B1A9B105A1ED0E997
:108AD00000301B1A9B1003EBC21388680A68801AC7
:108AE00003EBA000704737B505460190406F03F0D7
:108AF000C7FE05F1800105F19000FFF7E3FF044692
:108B000050B9281D00F0E2FDD5F8A03004461BB195
:108B1000D5F8A43003B9013401A8FFF797FE204629
:108B200003B030BD38B505460C4680F8B21021B907
:108B3000FFF7D9FF08B185F8B34038BD13B5044637
:108B400004F098F990B103F0DBFED4F8B430C4F827
:108B5000AC300D4BC4F8A80000936946002304F123
:108B6000C0000193FFF742FE02B010BD94F8B2308E
:108B70001BB1012384F8B330F6E72046FFF7B3FFBB
:108B80000028F6D0F0E700BF85890D002DE9F341FC
:108B900004460190406F03F073FE04F1800104F17C
:108BA0009000FFF78FFFE36E834202D22046FFF76B
:108BB0006BFEDFF84880104F261D304600F086FD22
:108BC000236F984205DC01A8FFF740FE02B0BDE824
:108BD000F0810121304600F02BFD05460028ECD045
:108BE00001460022304600F05FFB2A4641463846E7
:108BF000FBF7D8FBE1E700BF80E403200F410E0044
:108C000013B50446002004F0DDF8012805D0124910
:108C10001248FDF720F902B010BD04F1740003F012
:108C20001FFE0F4A002300214FF4046004F0AAF84D
:108C3000FDF750FEFDF760FF201D00F075FC20469B
:108C4000FFF7A4FF074B00936946002304F1C0001F
:108C50000193FFF7CBFDDEE722410E0080E4032005
:108C60004D890D003D8B0D0070B50368044663B15E
:108C7000436A45691E1DAE4204D955F8040BFBF743
:108C80000EFAF8E72068FBF70AFA204670BD2DE9D6
:108C9000F04706468946406A71697368471A09EBCE
:108CA000A7050135B3EB450F144627D95D1B6D08A9
:108CB0003268AD000CB14FEA89042C441444031D02
:108CC000A142A3EB010213D9994202D0204608F039
:108CD00045FC74612368F36003F500733361E319A5
:108CE0007362E359F36103F500733362BDE8F08703
:108CF0009942EED0381D801A2044E8E703F10208BB
:108D00004B452CBF9844C844B8F1005F01D307F02D
:108D10009DFC4FEA8800FBF7BEF9A8EB05056D083E
:108D20008246AD000CB14FEA8904726A716904325F
:108D30002C449142544403D0521A204608F00EFCB1
:108D40003068FBF7ACF9C6E900A8C2E72DE9F041AD
:108D500086B004469DF830509DF834302B430F46C2
:108D60001646FFF72FFC0546002842D0434B4449E6
:108D70004448002E18BF33463A46FDF755F8606F59
:108D8000059403F07DFDD4F89820D4F89030043A8F
:108D9000934204F1780804F1900604F180072BD087
:108DA00003B11D60D4F890300433251DC4F8903011
:108DB000284600F08BFC394603903046FFF782FED0
:108DC000029004F057F8DDE9023200902E492D4858
:108DD000FDF72AF8284600F079FC00283ED020460E
:108DE000FFF752FD2046FFF7D1FE05A8FFF72EFD45
:108DF000012006B0BDE8F08139463046FFF762FE3B
:108E00006FF06043984202D1204807F022FCD4F86A
:108E10009C30A26F9A1AE36FA3EBA203012B04D834
:108E2000002201214046FFF732FF4FF40070D4F8D2
:108E30009C80FBF730F9C8F80400D4F8903003B1F7
:108E40001D60D4F89C301A1DC4F89C205B68C4F8DF
:108E5000943003F50072C4F89820A6E739463046EE
:108E6000FFF730FEE36E8342B9D304F003F8002825
:108E7000B5D007490348FCF7D7FFB3E7C3430E005B
:108E800045410E0080E403209D410E006D410E001F
:108E9000C9410E0073B590F8B0300446002B41D0A4
:108EA00090F8B130D0F8A420002B3DD0524953485F
:108EB000FCF7BAFFD4F8A430D3B1261D0021304608
:108EC00000F0B6FBD4F8A430984205460DD101213C
:108ED000304600F0ADFB00222946304600F0E4F9B0
:108EE000474946482A46FCF79FFF0023C4F8A430B0
:108EF000D4F8A00010B1432107F06EFB0023C4F8A2
:108F0000A030D4F8B830C4F8AC303E4B009369467A
:108F1000002304F1C0000193FFF768FC03F0F0FCAC
:108F2000C4F8A80002B070BD37493448FCF77CFF94
:108F3000D4F8BC30C4F8AC30D4F8A4304BB1D4F879
:108F4000A00010B1432107F047FB0023C4F8A03074
:108F5000DBE7606F009403F093FCD4E92032934286
:108F600013D0D4F8A02043F8042CD4F88030043B6C
:108F7000C4F880306846FFF769FC24491F48FCF7B5
:108F800053FF2046FFF780FCBFE704F1800104F1A6
:108F90009000FFF797FD6FF06043984204F1780569
:108FA00002D11B4807F055FBD4F88C20A36F9A42DE
:108FB00004D1012211462846FFF769FE4FF40070E4
:108FC000D4F88C50FBF767F845F8040CD4F88C30D3
:108FD0001A1FC4F88C2053F8043CC4F8843003F5FD
:108FE0000072C4F8882003F5FE72C4F88020D4F81B
:108FF000A020C3F8FC21BDE7DC410E0080E4032083
:10900000EF410E0085890D00FF410E0011420E0058
:109010006D410E00014B024A1A60704780E4032044
:1090200038420E0010B5074B044640F8C03BFBF732
:1090300057FD04F17800FFF717FE201D00F0B2F98C
:10904000204610BD4C420E0010B50446FFF7EAFF63
:109050002046D02107F0C0FA204610BD01207047FD
:10906000F8B51F4D1F4B0446294640F8043B06F057
:10907000B2FC1D4904F1140006F0ADFC294604F1D0
:10908000240006F0A8FC0023C4E90E33C4E912331F
:10909000C4E91433C4E91633C4E9183384F834300E
:1090A0002364082363642020FAF7F5FF656C2064CD
:1090B000013D6D0800EB850706464FF40070FAF796
:1090C000EAFF00F50073C4E9170346F82500E064E1
:1090D000A064A0656765236567662046F8BD00BF8C
:1090E000C3430E0058430E0058420E007FB5051DC5
:1090F0000446284606F0CDFC0E49684606F06BFC97
:109100006946284606F054FD0646684606F018FCF7
:109110006EB1E3680022013B2946684606F05EFD19
:109120006946284606F0ADFC684606F009FC204674
:1091300004B070BD5D420E0010B5C36B044613B998
:109140003C3003F075FBE06BBDE8104003F078BBEA
:10915000C06B03F07DBB000010B596B069460446B5
:1091600003F0E6FCD0B9019B5B04224606D5154905
:109170001548FBF717F9012016B010BD1248134926
:10918000FCF769FE204609F043FA40F2FF11204641
:1091900003F0D6FC80B90E492246E9E703F042FF0E
:1091A0000368022BF1D003F03DFF0A49026806482C
:1091B000FCF751FE0020DFE703F034FF06490268A8
:1091C000F5E700BF6A420E0088E4032087420E00E4
:1091D000B8420E00A4420E00C7420E0038B5154634
:1091E000044606F0F8FB4DB12B783BB1044920460C
:1091F00006F078FC2946204606F074FC204638BD6F
:1092000018490E007FB505460E461C46496968465A
:1092100006F004FD009904B9746A22462846FFF757
:10922000DDFF684606F08CFB284604B070BD0000E8
:1092300070B50C468EB01A49CDE90032054606F0ED
:10924000CAFBE069E16801440431284606F096FB58
:10925000211D06A806F00AFC124902A806F0BBFB75
:1092600002A906A806F04FFCDDE9003206462146B9
:109270000AA8FFF7C7FF0AA9304606F044FC0146DA
:10928000284606F0E4FB0AA806F05AFB02A806F0FE
:1092900057FB06A806F054FB28460EB070BD00BF71
:1092A000C3430E005D420E002DE9F04713468EB019
:1092B00005460F46002A4AD0406803F059FC06468E
:1092C000002841D0DFF8B0A0DFF8A490DFF8A48038
:1092D000304603F055FC002833D0827A082AF7D1B3
:1092E00000F10B04696901AA204603F073FE01280E
:1092F000EED1019B9F42EBD1291D06A806F0B6FBDB
:1093000051460AA806F067FB0AA906A806F0FBFB6F
:10931000214606F004FC014602A806F0A7FB0AA8B5
:1093200006F00EFB06A806F00BFB029809F070F998
:109330004046029A4946FCF777FD02A806F000FB7A
:10934000C6E7304603F024FC0EB0BDE8F0870A46BD
:1093500001460AA8FFF76CFF0A9809F059F90A9A22
:1093600003490448FCF760FD0AA806F0E9FAEBE7B8
:109370005F420E0088E403205D420E0070B5036872
:10938000044663B1436A45691E1DAE4204D955F8CF
:10939000040BFAF784FEF8E72068FAF780FE20460F
:1093A00070BD000010B5094B044640F8403BFFF784
:1093B000E5FF04F1240006F0C3FA04F1140006F0FE
:1093C000BFFA201D06F0BCFA204610BD58430E001F
:1093D00010B50446FFF7E6FF2046682107F0FCF8C9
:1093E000204610BDC368CA689B1A9B105A1ED0E95C
:1093F00000301B1A9B1003EBC21388680A68801A9E
:1094000003EBA000704700002DE9F04704468846B2
:1094100000F108011830FFF7E5FF6FF06043984254
:1094200002D1374807F015F9626A20686368111A9B
:10943000A3EBA101012921D86169571ABE10B51CFF
:10944000B3EB450F36D95D1B6D0800EB8505131D89
:10945000A942A3EB010227D9994202D0284608F07D
:109460007DF865612B68E36003F500732361EB19F8
:109470006362EB59E36103F5007323624FF40070FC
:10948000656AFAF708FE6860A36913B1D8F800208E
:109490001A60636A1A1D62625B68E36103F5007219
:1094A0002262A361BDE8F0879942DAD0381D801AA4
:1094B0002844D4E703F10209012B2CBF994409F198
:1094C0000109B9F1005F01D307F0C0F84FEA890044
:1094D000FAF7E1FD626A6169A9EB050504326D08DE
:1094E0009142824600EB850503D0521A284608F0C7
:1094F00035F82068FAF7D3FDC4E900A9B1E700BF49
:109500006D410E0038B5056A8269043DAA420346E2
:1095100006D00AB1096811609A6904329A6138BDAF
:10952000FFF772FFFBE700002DE9F047C368012B4E
:1095300086B0044608D834493448FCF78CFC002631
:10954000304606B0BDE8F0874068FFF705FE0646E6
:109550000028F4D0636962682D492C48FCF764FC4C
:10956000606803F005FB07460028E8D00023DFF819
:10957000A490DFF89880A363384603F001FB05460A
:10958000002839D0837A082BF6D10B35616901AAFE
:10959000284603F01FFD0128EED1E36A7BB129467E
:1095A00002A806F018FA04F1240102A806F000FB54
:1095B000824602A806F0C4F9BAF1000FDCD0236895
:1095C00029469B68204698470028D5D0019AA36B6E
:1095D0009342B8BFA2632B4649464046FCF724FCA1
:1095E0002046FFF7A9FD04F1400001A9FFF78AFF1B
:1095F0002046FFF7ADFDBFE7384603F0C9FA012367
:1096000084F834309CE700BFDD420E0088E403207C
:10961000F2420E000E430E0010B590F834300446AE
:109620000BB9FFF781FFA06B0130A06310BD0000F4
:1096300070B590F8343004460E460BB9FFF774FF4E
:109640002046FFF779FDA36CA26D93421ED01D68E2
:109650002EB1226D043A93420CD00433A364204609
:10966000FFF776FD25B10A490A482A46FCF7DCFBDC
:10967000284670BDE06CFAF712FD636D1A1D626535
:109680005B68E36403F500722265E7E70025E6E71F
:1096900024430E0088E4032013B590F83430019180
:1096A00004460BB9FFF740FF019BA26B9A42B8BF7B
:1096B000A3632046FFF740FD01A904F14000FFF736
:1096C00021FF2046FFF744FD02B010BD38B5044627
:1096D000FFF732FD04F1480104F15800FFF782FE64
:1096E00005462046FFF734FD284638BD014B024AA7
:1096F0001A60704788E4032041430E0070477047AA
:1097000003685B681847012A08BF016000207047A2
:10971000022A06D0032A02D0012A00D101600020CB
:1097200070470B680360FAE7022A06D0032A02D0CA
:10973000012A00D10160002070470B680360FAE73E
:10974000022A06D0032A02D0012A00D1016000209B
:1097500070470B680360FAE7012A08BF0160002028
:109760007047022A06D0032A02D0012A00D10160E4
:10977000002070470B680360FAE7022A06D0032A2C
:1097800002D0012A00D10160002070470B680360FD
:10979000FAE7022A06D0032A02D0012A00D101608A
:1097A000002070470B680360FAE7022A06D0032AFC
:1097B00002D0012A00D10160002070470B680360CD
:1097C000FAE7012A034602D1016000207047022A0D
:1097D00004BFD1E90001C3E90001F6E710B5034B6E
:1097E00003600446FDF724FA204610BDDC450E0058
:1097F00010B50446FFF7F2FF204640F2BC5106F0D8
:10980000EBFE204610BD10B5C36904461BB103F042
:1098100077F8A06110BD0368BDE810409B68184749
:1098200010B5006883680BB906F016FFBDE810405C
:10983000C36818470B460168184604F0C9BD0B46BB
:109840000168184604F0C4BD10B50446C2688068BB
:10985000002107F09DFEA36822691A60A368A28A0E
:109860009A80D4E90232DA8010BD0B2910B51AD9DA
:10987000836802691C68944215D19C88828A94424C
:1098800011D1DC888AB294420DD8C268914205D2C7
:1098900000245C54C26801318A42FAD8D0E902320D
:1098A0000120DA8010BD0020FCE708B500680368DD
:1098B00000219B699847012008BD08B5006803682E
:1098C00001219B699847012008BD08B506F080FB7F
:1098D00080F00100C0B208BD02680B461846D2F8FD
:1098E0007C1704F075BD10B58369044633B131B1FE
:1098F000236820469B6898470023A36110BD02F0AF
:10990000FFFFA369C01AE3699842F1D2F6E70000AD
:1099100030B587B00D46002202A90320029203F061
:109920000FFA68BB029C0CB1236923B9154A0021C8
:109930000A2003F0C5F90023ADF80E300C23ADF872
:109940000C3001AB04930423059303AA236901217E
:1099500020469847A0B9BDF8043007EE903AFBEED8
:10996000CC7AF5EEC07AF1EE10FA09DD17EE900A26
:1099700007F0EAF941EC100B0121284604F04CFDF8
:1099800007B030BDF1C80D0010B442680346541052
:1099900001EB6200D20748BF0A591B685DF8044B0F
:1099A00048BFD3581847B0F1006F08B501D306F08F
:1099B0004DFEBDE808400001FAF76DBB704700009E
:1099C00010B5074B044640F8203B05F0B9FF60682E
:1099D000044B236008B102F04BFF204610BD00BFCE
:1099E00058460E0038460E0010B50446FFF7E8FF53
:1099F0002046502106F0F0FD204610BD70B5104BFA
:109A00000360044600F5BA6005F09AFFD4F8C45527
:109A1000D4F8C865AE4204D02846FBF761F810358B
:109A2000F8E7D4F8C40508B1FAF739FB04F10800E7
:109A3000FFF7D4FE606808B102F01AFF204670BD3F
:109A4000EC450E0010B50446FFF7D8FF204640F263
:109A5000E45106F0C1FD204610BD000010B50446DB
:109A6000043020601022002107F092FD01232375AD
:109A7000024B636000232372204610BD10000300D8
:109A800038B50446006928B185680C2106F0A4FDAC
:109A90002846F8E7204638BD70B5037D05460E46DA
:109AA000CBB10368DB6823B19A88042A17D09B687E
:109AB000F9E70C49102006F0C5FD044668B11022F4
:109AC000002107F065FD084B23600423A3802B6968
:109AD0002C61C4E90236284670BD2875FBE7DE60BC
