:02000002D0002C
:1040000000400D0020520E00000006000D000501CA
:084010000401FD08000000009E
:04401800443A0E0018
:1040200009480A49884208B505D0094A824202D0A7
:10403000121A0DF0B1FB0748074A0021121A0DF0C1
:10404000D3FB014808BD00BF18E10320644F0E00F8
:10405000A8E30320A8E30320F0E7032070B5074E90
:10406000074C0CF08FFAA41BA4080025A54200D130
:1040700070BD56F8043B98470135F7E71C4F0E001A
:10408000604F0E0000F060B808B500F07FF8BDE8A2
:1040900008400CF02FBA09F0A7B809F0A5B809F04C
:1040A000ABB809F0A9B8000008B5034A00210C20FC
:1040B00008F03AFFFEE700BF59CB0D000078B0FAD8
:1040C00080F0400970470123037070477047006A11
:1040D0000368DB681847000010B5034B0360044613
:1040E00004F02EFA204610BD903A0E0010B504469A
:1040F000FFF7F2FF204610210CF09AFB204610BD7E
:104100000A4B10B5044603600AF016FD21460AF07A
:10411000D8FE0CF0A7F90CF099F92046044B40F8B2
:10412000043B0AF0BBFD204610BD00BF783A0E00EC
:10413000603A0E0010B50446FFF7E2FF2046242146
:104140000CF076FB204610BD10B50F4C00F03EF988
:1041500001F05AFD00F0BCF92046012102F058FBA5
:104160000021204602F036F97C21204602F0AEF80C
:1041700004F060FC04F078FE01F0FEFA06F0FCF9B1
:10418000BDE8104007F070B9B4E3032008B506F0AD
:10419000F3F908F03BFC054802F01AFC04F04AFC75
:1041A00004F03AFBBDE8084001F06EBCB4E3032024
:1041B00070B5D0E900531426044606FB0356AE4200
:1041C00004D028460BF0E8FC1435F8E7206809F025
:1041D00013F8204670BD8842F8B504460D461646D1
:1041E00016D9904215D2A2F11406751AA1F114073E
:1041F0002C44B7421CD02CB1314620460BF048FD70
:10420000337C237430460BF0C7FC143E143CF0E7BB
:104210000ED0B5420CD02CB1294620460BF038FD0B
:104220002B7C237428460BF0B7FC14351434F0E7CC
:10423000F8BD2DE9F0410023C0E9003383604F68E9
:104240009F4204460E4623DD4FF0140808FB07F09A
:1042500008F0CAFF0546D8B1D4E9001208FB0212E3
:10426000FFF7B9FF206808F0C7FF2560A760D6E90F
:10427000007308FB0378B84508D0394628460BF090
:1042800021FD3B7C2B7414371435F4E773686360AD
:104290002046BDE8F0810000F0B58DB00024CDE9E6
:1042A000004402940CF0DEF8334D0646694603A83C
:1042B000FFF7BFFF2F4603A906A8FFF7BAFF2F4B52
:1042C00047F8043B06A909A8FFF7B3FF09AA1E2176
:1042D00038460AF050FF09A8FFF76AFF06A8FFF763
:1042E00067FF274B2B602E6203A8FFF761FF254B6A
:1042F0002B600CF0B7F84FF416510CF0A3F80AF04D
:104300001BFC29460AF0C9FE6846FFF751FF21460B
:10431000012008F073FE1C4B1C4A1C609C809C71A1
:104320009A60022008F052FE0121042008F0F4FBFC
:104330000CF036FA692201461548164D01F0D6FEFA
:104340000CF02EFA234601464FF40052284604F0A2
:1043500003F9114B2B600CF047F9234622460D213F
:104360000CF04AF90CF040F92346224621460CF0A5
:104370004BF90DB0F0BD00BFE4E30320603A0E003E
:10438000F84A0E00783A0E00A8E303200000FFFF71
:10439000B4E30320D4E30320903A0E000EB410B52A
:1043A0008DB00FAA016852F8044B0392002320201D
:1043B000CDE90403CDE900421E2004AA08F0D4FD93
:1043C0000DB0BDE8104003B07047000008B50F49BC
:1043D0000F48FFF7E3FF002113200CF05BF90021E9
:1043E00012200CF057F9012111200CF053F9022191
:1043F00004200CF04FF9002108200CF04BF90121AA
:1044000007200CF047F9012008BD00BFA43A0E00B8
:1044100060E503200023042208F036BE37B59DF87E
:1044200018501D438DF800503C23044609F01EFA35
:10443000204603B030BD000013B51B4C6389B3F5B3
:10444000C05F23D119491A480DF034FA17491948A9
:104450000DF030FA2369184A1848102108F0ECFED4
:10446000E0680CF09DFD164ACDE9000108211548D1
:1044700008F0E2FE60690CF093FD114ACDE90001FD
:104480000821114808F0D8FE02B010BDA37A0F4AE7
:104490000748082108F0D0FEE37A0C4A05480821B5
:1044A00008F0CAFED6E700BF50E40320C83A0E0069
:1044B0002EE1032026E10320D13A0E0036E103204D
:1044C000D73A0E0046E103201EE10320CB3A0E004E
:1044D00010B588B03D4B00933D4B01933D4B02938B
:1044E0003D4B03933D4B04933D4B059300243D4BC3
:1044F0003D493E4806930794FFF750FF3C493D482D
:10450000FFF788FF3C493D48FFF784FF3C493D48A1
:10451000FFF780FF3C4B3D4A597A3D4B3D48A14255
:1045200014BF11461946FFF775FF3B493B48FFF79B
:1045300071FF3B493B48FFF76DFF23463A493B4833
:10454000022208F0A1FD3A4B3A481B7B08AA02EB75
:10455000830353F8201CFFF75DFF37493748FFF707
:1045600059FF37493748FFF755FF37493748FFF7B5
:1045700051FF37493748FFF74DFF37493748FFF7B5
:1045800049FF374A3749384809F064F8374A38490B
:10459000354809F05FF8374A3749334809F05AF887
:1045A000364A3749304809F055F8364A36492E48D8
:1045B00009F050F8354A36492B4809F04BF801F01C
:1045C000BDFC08B0BDE81040FFF736BFE73A0E006B
:1045D000EF3A0E00F33A0E00FC3A0E00043B0E00D8
:1045E000103B0E00163B0E00223B0E0060E5032040
:1045F0004EE10320503B0E002EE10320E93B0E006C
:1046000026E10320F73B0E0050E40320E03A0E00C1
:10461000E43A0E005E3B0E0018E103206C3B0E00F6
:104620005EE10320743B0E0028E403207B3B0E0078
:1046300020E40320863B0E009EE10320953B0E0004
:10464000AEE10320A23B0E0046E10320AC3B0E008E
:1046500036E10320B83B0E001EE10320C93B0E00EB
:10466000D83B0E0099470D0029D60D00E53B0E0002
:10467000C1460D00F33B0E002D470D00023C0E001D
:1046800031480D00163C0E00BD480D00293C0E00BF
:1046900051490D0038B5046805467CB16368013B9B
:1046A00063605BB9236820469B689847A368013B19
:1046B000A3601BB923682046DB689847284638BDAD
:1046C00000B597B000680A2203A90EF08BF81728EE
:1046D0001DD8114B114A98724021034606A808F0D4
:1046E000ABFD0F4806A9FFF759FE08F0EDFC60B1DD
:1046F00000238DF800300B4B0B491B7804A806AA49
:10470000FFF78CFE05A8FFF7C5FF012000E00020A1
:1047100017B05DF804FB00BF50E403203C3C0E00E2
:1047200060E5032008E40320EE3B0E0000B597B0DF
:1047300000680A2203A90EF055F818281DD8114B5D
:10474000114AD8724021034606A808F075FD0F48AB
:1047500006A9FFF723FE08F0B7FC60B100238DF82F
:1047600000300B4B0B491B7804A806AAFFF756FE36
:1047700005A8FFF78FFF012000E0002017B05DF8CB
:1047800004FB00BF50E40320503C0E0060E5032012
:1047900008E40320EE3B0E0010B51C4994B004461B
:1047A0000BF020FB48B3194920460BF01BFB184BBC
:1047B000002814BF012200225A72164A164B4FF0ED
:1047C000400118BF134604A8144A08F035FD1448E8
:1047D00004A9FFF7E3FD08F077FC60B100238DF832
:1047E0000030104B10491B7802A804AAFFF716FEF0
:1047F00003A8FFF74FFF012005E00C4920460BF00E
:10480000F1FA0028CFD114B010BD00BFA83E0E00B1
:1048100050E40320653C0E006A3C0E00703C0E0024
:1048200060E5032008E40320833C0E00264A0E00C6
:1048300030B587B0006803A90DF0D4FEB5EEC00A0C
:10484000F1EE10FA28D4DFED167AB4EEE70AF1EEB5
:1048500010FACCBF012400241EDC124D85ED030AA2
:10486000FFF7EAFD08F030FCA0B1D5ED037A0E4B5E
:10487000F5EE407AF1EE10FA1B7807BF0B4A0C49AF
:104880000C4A0D498DF8004004A8FFF7C7FD05A8A4
:10489000FFF700FF012000E0002007B030BD00BF9F
:1048A0000000C84250E4032008E40320883C0E00C6
:1048B000A33C0E0046E103201F3C0E0030B52DED59
:1048C000028B87B0006803A90DF08CFEB5EEC00A1C
:1048D000F1EE10FA28D49FED178AB4EEC80AF1EE73
:1048E00010FACCBF012400241EDC134D85ED050A0F
:1048F000FFF7A2FD08F0E8FBA0B1D5ED057A0F4B5C
:10490000F4EE487AF1EE10FA1B7807BF0C4A0D4915
:104910000D4A0E498DF8004004A8FFF77FFD05A859
:10492000FFF7B8FE012000E0002007B0BDEC028BCD
:1049300030BD00BF0000C84250E4032008E403205B
:10494000AA3C0E00A33C0E0046E10320CA3C0E0028
:1049500010B586B000680A2203A90DF043FF07EEE8
:10496000900AF8EEE77AF5EEC07AF1EE10FA21D46B
:104970009FED127AF4EEC77AF1EE10FACCBF012463
:10498000002417DCFDEEE77A0D4BC3ED047AFFF748
:1049900053FD08F099FB58B10A4B8DF8004004A86C
:1049A0001B78094A0949FFF739FD05A8FFF772FE90
:1049B000012000E0002006B010BD00BF00007A44D6
:1049C00050E4032008E4032036E10320333C0E00CA
:1049D000014B01221A70704708E4032000680A683E
:1049E000D0E90001002382428B41ACBF01200020AE
:1049F0007047022A06D0032A02D0012A00D10160A2
:104A0000002070470B680360FAE7022A06D0032AE9
:104A100002D0012A00D10160002070470B680360BA
:104A2000FAE7012A08BF016000207047012A08BF89
:104A3000016000207047012A08BF01600020704714
:104A4000012A08BF016000207047012A08BF0160E9
:104A50000020704708B50021006801F037FC0120F4
:104A600008BD08B54FF0FF31006801F02FFC0120B0
:104A700008BD10B50B6801330C460AD103F0DAFF0C
:104A8000002104F083F901232360002484F0010055
:104A900010BD0368D3E9000150EA010309D0126890
:104AA000002382428B4104DB03F0C4FF012104F0A8
:104AB0006DF903F0BFFF90F8B340002CE6D003F08F
:104AC000B9FF012104F062F903F0B4FF04F010F81B
:104AD000DCE70000024B587A80F00100704700BF0D
:104AE00050E4032008B503F0A5FF012104F04EF9BE
:104AF000012008BD022A38B5044607D0032A10D089
:104B0000012A01D10B680360002038BD08200D6820
:104B1000FFF7C1FA18B1D5E90023C0E900232060EE
:104B2000F2E700680028EFD008210BF081FEEBE7E8
:104B3000022A38B5044607D0032A10D0012A01D131
:104B40000B680360002038BD08200D68FFF7A3FA4A
:104B500018B1D5E90023C0E900232060F2E700681E
:104B60000028EFD008210BF063FEEBE710B5836857
:104B7000044613B1032201469847204610BD13B5E1
:104B80000446084601910CF0BAFE019902462046FF
:104B900002B0BDE8104009F005BE000038B50C4673
:104BA00020461949FFF7EBFF05460BF05AFB01467B
:104BB0002846164D09F038FD15492046FFF7DFFF5E
:104BC000297B09F031FD13492046FFF7D8FF95ED09
:104BD000000B09F06BFD10492046FFF7D0FF95ED63
:104BE000080B09F063FD0D492046FFF7C8FF95ED5E
:104BF0000A0B09F05BFD0A492046FFF7C0FF297E3A
:104C0000BDE8384009F010BD4C460E0020E40320FA
:104C1000CF3C0E00D53A0E00D23C0E00D53C0E0023
:104C2000D83C0E0070B5214B1E880B7D0D468BB114
:104C30000B68DB681BB39A88012A06D09B68F9E7EA
:104C40009B68E3B19A88012AFAD19A89B242F7D1D6
:104C500000229A734FF4FA6008F04AFB1448154991
:104C6000FFF79CFB30460BF03FFD30B9124B134A67
:104C7000587213490E48FFF791FB012070BD11498E
:104C800010200BF00BFE044670B1102200210CF036
:104C9000ABFD0D4B23600123A3802B69A360002390
:104CA000A681A3732C61D5E72875D3E7BE3A0E0021
:104CB00060E50320DB3C0E0050E403206A3C0E005C
:104CC000F03C0E00444C0E001000030010B57F2491
:104CD00004700024C0E90144C0E90344C0E905446C
:104CE0004968034C5268C461C0E90814826210BD6F
:104CF00000420E0010B50446243002F0F9F804F129
:104D00001C0002F0F5F8206908B1FFF7C8F96068E7
:104D100008B1FFF7C4F9204610BD38B50023836001
:104D20008B6804460D462BB102229847EB68E3607E
:104D3000AB68A360204638BD10B59AB00BF074FA8A
:104D400000284DD04FF4FA6008F0D2FA01F0F6F8DE
:104D5000254B1B7E012B26D124492548FFF71EFB3E
:104D6000244B254A1B6940210AA808F065FA234B09
:104D700023491B788DF800300AAA3C2306A808F0C6
:104D800075FD079C7CB16368013B63605BB9236878
:104D900020469B689847A368013BA3601BB9236822
:104DA0002046DB68984705F0E7FB164B0593044661
:104DB000154B049302A906A8FFF7AFFF06A90AA89E
:104DC000FFF7ABFF0AA904F5EA6005F03FFC0AA86B
:104DD000FFF7CCFE06A8FFF7C9FE02A8FFF7C6FE44
:104DE00000201AB010BD00BF20E40320123D0E00C9
:104DF00060E5032050E40320343D0E0009E4032065
:104E0000443D0E009D4B0D002D4A0D0038B500238A
:104E100083608B6804460D462BB102229847EB68ED
:104E2000E360AB68A360204638BD38B500238360DB
:104E30008B6804460D462BB102229847EB68E3606D
:104E4000AB68A360204638BD38B5002383608B680B
:104E500004460D462BB102229847EB68E360AB682D
:104E6000A360204638BD38B5002383608B680446B4
:104E70000D462BB102229847EB68E360AB68A36054
:104E8000204638BD38B5002383608B6804460D4644
:104E90002BB102229847EB68E360AB68A360204621
:104EA00038BD38B5002383608B6804460D462BB1AE
:104EB00002229847EB68E360AB68A360204638BDE8
:104EC00038B5002383608B6804460D462BB102225F
:104ED0009847EB68E360AB68A360204638BD13B524
:104EE0000B460246D0E900016C4684E8030093E8D3
:104EF000030082E8030094E8030083E8030002B0A3
:104F000010BD2DE9F8430746884616461546044667
:104F10004FF00009444514D06DB1C5F808902946FA
:104F20002046FFF7DCFFA368AA68A260AB60E368D5
:104F3000EA68E260EB602046FFF718FE1034103597
:104F4000E8E7E01B3044BDE8F8832DE9F843074665
:104F500088461646154604464FF00009444514D0CD
:104F60006DB1C5F8089029462046FFF7B8FFA36841
:104F7000AA68A260AB60E368EA68E260EB60204682
:104F8000FFF7F4FD10341035E8E7E01B3044BDE8CE
:104F9000F8832DE9F8430746884616461546044629
:104FA0004FF00009444514D06DB1C5F8089029466A
:104FB0002046FFF794FFA368AA68A260AB60E3688D
:104FC000EA68E260EB602046FFF7D0FD1034103550
:104FD000E8E7E01B3044BDE8F8832DE9F8430746D5
:104FE00088461646154604464FF00009444514D03D
:104FF0006DB1C5F8089029462046FFF770FFA368F9
:10500000AA68A260AB60E368EA68E260EB602046F1
:10501000FFF7ACFD10341035E8E7E01B3044BDE885
:10502000F8832DE9F8430746884616461546044698
:105030004FF00009444514D06DB1C5F808902946D9
:105040002046FFF74CFFA368AA68A260AB60E36844
:10505000EA68E260EB602046FFF788FD1034103507
:10506000E8E7E01B3044BDE8F8832DE9F843074644
:1050700088461646154604464FF00009444514D0AC
:105080006DB1C5F8089029462046FFF728FFA368B0
:10509000AA68A260AB60E368EA68E260EB60204661
:1050A000FFF764FD10341035E8E7E01B3044BDE83D
:1050B000F8832DE9F8430746884616461546044608
:1050C0004FF00009444514D06DB1C5F80890294649
:1050D0002046FFF704FFA368AA68A260AB60E368FC
:1050E000EA68E260EB602046FFF740FD10341035BF
:1050F000E8E7E01B3044BDE8F88300002DE9F34702
:10510000D0E9007988466FF078431146A9EB070291
:10511000B3EB221F06464FEA221402D11A480BF0C5
:10512000C4FB012C224638BF0122A418A8EB070AB1
:1051300028D24CB19C4228BF1C4620010191FEF7A9
:10514000AAFF0199054600E0254615EB0A0001D0AB
:10515000FFF75CFE41462A463846FFF7AAFF49465C
:1051600000F110024046FFF7A4FF804617B1384611
:10517000FEF795FF05EB0414C6E90058B46002B0D1
:10518000BDE8F0871C46D8E7573D0E002DE9F347F0
:10519000D0E9007988466FF078431146A9EB070201
:1051A000B3EB221F06464FEA221402D11A480BF035
:1051B0007CFB012C224638BF0122A418A8EB070A69
:1051C00028D24CB19C4228BF1C4620010191FEF719
:1051D00062FF0199054600E0254615EB0A0001D063
:1051E000FFF723FE41462A463846FFF7D2FE4946DE
:1051F00000F110024046FFF7CCFE804617B138465A
:10520000FEF74DFF05EB0414C6E90058B46002B088
:10521000BDE8F0871C46D8E7573D0E002DE9F3475F
:10522000D0E9007988466FF078431146A9EB070270
:10523000B3EB221F06464FEA221402D11A480BF0A4
:1052400034FB012C224638BF0122A418A8EB070A20
:1052500028D24CB19C4228BF1C4620010191FEF788
:105260001AFF0199054600E0254615EB0A0001D01A
:10527000FFF7EAFD41462A463846FFF7F6FE494663
:1052800000F110024046FFF7F0FE804617B13846A5
:10529000FEF705FF05EB0414C6E90058B46002B040
:1052A000BDE8F0871C46D8E7573D0E002DE9F347CF
:1052B000D0E9007988466FF078431146A9EB0702E0
:1052C000B3EB221F06464FEA221402D11A480BF014
:1052D000ECFA012C224638BF0122A418A8EB070AD9
:1052E00028D24CB19C4228BF1C4620010191FEF7F8
:1052F000D2FE0199054600E0254615EB0A0001D0D3
:10530000FFF7B1FD41462A463846FFF71EFE4946E3
:1053100000F110024046FFF718FE804617B13846EC
:10532000FEF7BDFE05EB0414C6E90058B46002B0F8
:10533000BDE8F0871C46D8E7573D0E002DE9F3473E
:10534000D0E9007988466FF078431146A9EB07024F
:10535000B3EB221F06464FEA221402D11A480BF083
:10536000A4FA012C224638BF0122A418A8EB070A90
:1053700028D24CB19C4228BF1C4620010191FEF767
:105380008AFE0199054600E0254615EB0A0001D08A
:10539000FFF778FD41462A463846FFF742FE494668
:1053A00000F110024046FFF73CFE804617B1384638
:1053B000FEF775FE05EB0414C6E90058B46002B0B0
:1053C000BDE8F0871C46D8E7573D0E002DE9F347AE
:1053D000D0E9007988466FF078431146A9EB0702BF
:1053E000B3EB221F06464FEA221402D11A480BF0F3
:1053F0005CFA012C224638BF0122A418A8EB070A48
:1054000028D24CB19C4228BF1C4620010191FEF7D6
:1054100042FE0199054600E0254615EB0A0001D041
:10542000FFF73FFD41462A463846FFF7D6FD49467D
:1054300000F110024046FFF7D0FD804617B1384614
:10544000FEF72DFE05EB0414C6E90058B46002B067
:10545000BDE8F0871C46D8E7573D0E0030B589B04F
:105460000446274B009103930D46264B0293694651
:1054700004A8FFF7DAFCD4F85406D4F8583698425A
:105480002FD010B104A9FFF7D0FCD4F85436103354
:10549000C4F8543604A8FFF769FB6846FFF766FBBB
:1054A000194B03936946194B029304A80095FFF723
:1054B000F8FCD4F8FC06D4F80037984218D010B1A4
:1054C00004A9FFF7EEFCD4F8FC361033C4F8FC3620
:1054D00004A8FFF74BFB6846FFF748FB204609B0DE
:1054E00030BD014604AA04F5CA60FFF74FFED1E7BC
:1054F000014604AA04F5DF60FFF768FFE8E700BF94
:10550000634A0D00F3490D00554A0D000B4A0D008A
:105510002DE9F347D0E9007988466FF078431146CA
:10552000A9EB0702B3EB221F06464FEA221402D171
:105530001A480BF0BAF9012C224638BF0122A418F0
:10554000A8EB070A28D24CB19C4228BF1C46200178
:105550000191FEF7A0FD0199054600E0254615EBF7
:105560000A0001D0FFF7ACFC41462A463846FFF757
:10557000C8FC494600F110024046FFF7C2FC8046D5
:1055800017B13846FEF78BFD05EB0414C6E9005849
:10559000B46002B0BDE8F0871C46D8E7573D0E0066
:1055A0002DE9F84FD0E9008A93466FF07043AAEBDB
:1055B0000802B3EBE20F074689464FEAE20402D144
:1055C00025480BF072F9012C224638BF0122A4189D
:1055D000A1EB08063DD23CB19C4228BF1C46E0002E
:1055E000FEF759FD054600E02546AB191CBFDBE977
:1055F0000001C3E90001002308EB030291450AD032
:1056000015EB030C18BFD2E9000103F1080318BF22
:10561000CCE90001F0E708362E4432464B465345AC
:1056200002F1080205D093E80300083302E9030001
:10563000F5E7A3EB09031E44B8F1000F02D0404682
:10564000FEF72DFD05EBC404C7E90056BC60BDE8BC
:10565000F88F1C46C3E700BF573D0E0010B50A4641
:10566000D0E901418C42034608D01CB192E8030006
:1056700084E803005A6808325A6010BD2146FFF7DB
:105680008FFFFAE710B5044686B002A8FFF7EBFBE0
:10569000D4F8CC06D4F8D036984218D010B102A96C
:1056A000FFF7E1FBD4F8CC361033C4F8CC364FF01A
:1056B000FF330022694604F2D460CDE90032FFF7DF
:1056C000CDFF02A8FFF752FA204606B010BD0146F2
:1056D00002AA04F5D960FFF7E9FDE8E770B588B0E4
:1056E00004461D461D4B039369461D4B029304A8B7
:1056F0001646FFF7C7FBD4F8F006D4F8F436984204
:1057000025D010B104A9FFF7BDFBD4F8F036103353
:10571000C4F8F03604A8FFF729FA6846FFF726FA1E
:10572000002308200693FEF7B6FC08B1C0E9006527
:105730000C4B0490079304A90B4B06932046FFF7EC
:10574000A1FF04A8FFF712FA204608B070BD014679
:1057500004AA04F2EC60FFF7F1FDDBE7E54A0D0077
:10576000234A0D00734A0D00314B0D00014B0122FD
:105770001A70704709E4032030B59FB004F0FCFEB6
:10578000874BC0F8A0370446002308200693FEF795
:1057900082FC18B1834A0023C0E90023824B0490A5
:1057A000079304A9814B069308A8FFF789FBD4F857
:1057B0000807D4F80C37984200F0DC8010B108A933
:1057C000FFF77EFBD4F808371033C4F8083708A871
:1057D000FFF7CCF904A8FFF7C9F901F0F3FF74490A
:1057E000054608A801F012FF09A905F108000AF012
:1057F0005AFA0E9BEB610FA905F120000AF053FA4B
:10580000149B6B63169BEB63189B6B641A9BEB6496
:105810001C9B6B659DF8743085F8583008A801F022
:105820007FFB644904F254700AF05FFA624904F2A3
:105830006C700AF05AFA614B03936946604B02930D
:1058400008A8FFF701FBD4F8B406D4F8B83698429C
:1058500000F0978010B108A9FFF7F6FAD4F8B43633
:105860001033C4F8B4364FF0FF33002204A904F219
:10587000BC60CDE90432FFF7F1FE08A8FFF776F926
:10588000504B079304A9504B069308A8FFF7BEFAA4
:10589000D4F84806D4F84C36984279D010B108A90B
:1058A000FFF7B4FAD4F848361033C4F8483608A8DD
:1058B000FFF75CF9454B0B9308A9454B0A9320462B
:1058C000FFF7E0FE4349FFF7C9FD00230022FFF781
:1058D00005FF08A8FFF74AF904A8FFF747F968464B
:1058E000FFF744F904F048FE3B4900F5C76002F0B9
:1058F000CDFD3A490446684601F0ACFC384904A89D
:1059000001F0A8FC04AA694608A8FFF7DFF908AA75
:105910003C21204602F0C1FC08A8FFF7EBF904A8DF
:1059200001F0E6FA684601F0E3FA04F025FE2D499D
:1059300000F5C76002F0AAFD28490446684601F058
:1059400089FC274904A801F085FC04AA694608A837
:10595000FFF7BCF908AA0F21204602F09EFC08A818
:10596000FFF7C8F904A801F0C3FA684601F0C0FACD
:105970001FB030BD014608AA04F20470FFF7C8FD4D
:1059800025E7014608AA04F5D660FFF747FC6AE759
:10599000014608AA04F24460FFF7B0FB87E700BFA6
:1059A000E093040020120A00DD490D00F54A0D00C5
:1059B000713D0E009A3D0E00AA3D0E00394D0D00BE
:1059C000374A0D00254C0D00414A0D00D54A0D0007
:1059D0004B4A0D00B4E30320AD3D0E00B23D0E0076
:1059E000BB3D0E00CF420E001FB507F06DFBD8B1D6
:1059F000174B184A1B788DF8003017493C2302A832
:105A000007F034FF039C7CB16368013B63605BB9C2
:105A1000236820469B689847A368013BA3601BB995
:105A200023682046DB6898470C490D48FEF7B6FC12
:105A30000C4B01221A700C4A0A21C3E90112002200
:105A4000DA6000221A61094A5A6104B010BD00BF31
:105A50000AE40320C43D0E00833C0E00DC3D0E0032
:105A600060E5032050E40320000106160000C84250
:105A7000014A08210AF0DEBE07690FC7014B012267
:105A80001A7070470AE403202DE9F0412DED028BD6
:105A9000544C82B00AF0E5FBD4E90023C1179942C7
:105AA00008BF904200F09C804F4F0AF0DAFB7B6801
:105AB0003E787D7A97ED038A1E443B7AC1171E44D7
:105AC000C4E900012E4418EE100ABD7A0BF068FA02
:105AD0002E44B5EE408AFD7AF1EE10FACDE90001D0
:105AE0002E4471D06846FFF7C3FF3D6997ED058AE4
:105AF0002E44341818EE100A0BF052FAB5EE408A14
:105B0000F1EE10FACDE9000160D06846FFF7B0FF72
:105B1000364D2B6804449C425AD035493548FEF72F
:105B20003DFC314A34481823012102F0ACFD012725
:105B30002C60324CD4E9000100220023CDE90001A1
:105B40000BF0EEFCA046002844D16846FFF790FF1A
:105B5000D8F8086098F80C303344D8F81060334413
:105B600098F8186033441C18D8E908010022002373
:105B7000CDE900010BF0D4FC70BB6846FFF778FF5D
:105B80000444D8E90A0100220023CDE900010BF00A
:105B9000C7FC18BB6846FFF76BFF194D2B68044420
:105BA0009C420BD017491348FEF7F8FB134A1248E2
:105BB0003023502102F067FD01272C60384602B0E7
:105BC000BDEC028BBDE8F08100208EE700209FE74E
:105BD0000027AEE70020BBE70020D1E70020DCE78C
:105BE0000027EBE710E4032050E403201CE403202B
:105BF000F43D0E0060E50320D4E3032020E40320FD
:105C000018E403201C3E0E0013B51D4802F0AEFC44
:105C10001B4801230DF10702002102F0E9FC9DF869
:105C20000740012C18D0164802F0AAFC154A144867
:105C30000423002102F027FD114801230DF1070282
:105C4000002102F0D5FC9DF80740012C15D1FFF78B
:105C5000CBFE204602B010BD0B490C48FEF79EFB60
:105C600021460B4A0648182302F0C2FC094A0448A0
:105C70003023502102F0BCFCEBE70020EAE700BF34
:105C8000D4E30320683E0E00433E0E0060E503208F
:105C900050E4032020E4032007EE900A9FED097AE8
:105CA000F8EEE77A67EE877A9FED077A87EE870A44
:105CB000DFED067A70EE677AB2EE040A87EE800AAC
:105CC000704700BF00404E4500F07F450000FA439A
:105CD00007EE900A10B59FED367AF8EEE77A2DEDD3
:105CE000028B67EE877A9FED337AC7EE878A86B09C
:105CF0009FED317AC7EE287AB7EE007A77EEC77A51
:105D00009FED2E7A87EE278AB5EEC08AF1EE10FA63
:105D100046DDB0EE480A0AF053FEDFED297A9FED2A
:105D2000297AA0EE277ADFED287A60EE277A67EEEF
:105D3000807AA7EE807A17EE100A0BF031F902464E
:105D40000B46002021490BF0ADFA17A3D3E900233D
:105D50000AF0C6FF0BF074FC04464FF47A7007F0AB
:105D6000C7FA18EE900A0BF01BF902460B462046C4
:105D7000CDE904230BF014F9CDE9020118EE100A65
:105D80000BF00EF9DDE90423CDE9000110491148BB
:105D9000FEF704FB00EE104A06B0BDEC028B10BD0E
:105DA0000D4CDAE7AFF300806666666666127140F6
:105DB00000404E4500F07F4500401C4500401C4619
:105DC0005981823944636C3A6F635B340000F03F61
:105DD000AA3E0E0060E50320CDCCC7C210B586B048
:105DE000002202A90720029207F0DEF8B8B9029C4F
:105DF0000CB1236923B9194A00210A2007F094F84D
:105E00000023ADF80E300C23ADF80C3001AB049339
:105E10000423059303AA2369012120469847104AC9
:105E2000104C527A0028A8BF0198207332B10E4856
:105E300007F08AFF4FF4FA7007F05AFA0A4807F0A1
:105E400023FFFDEEC07A17EE900A3C28D4BF002055
:105E50000120C4ED027A06B010BD00BF59CB0D0081
:105E600050E4032020E4032068E40320D3B5134C5E
:105E7000012101A809F051FDD4E9006700220023A7
:105E8000304639460BF056FB30B90D4B00223046F8
:105E900039460BF06DFB58B101A809F0D1FD012383
:105EA0002373002401A809F047FD204602B0D0BDAD
:105EB00001A809F0AEFD0124F4E700BF20E40320AF
:105EC0000080424030B5194D0FCD99B004AC0FC4DD
:105ED0000FCD0FC495E8030084E8030014490EA811
:105EE00007F05AFA0EA807F0AAFA04460EA807F01F
:105EF000C1FA0EA810EE105A07F0ECFA18AB10EE2B
:105F0000100A03EB84040BF04BF8CDE9020128469C
:105F10000BF046F8CDE90001064A54F8503C06481B
:105F2000402107F089F919B030BD00BF403F0E0095
:105F30001CE50320D03E0E005EE103203D4B37B54B
:105F40001D883D4C012128460AF0B5FB642007F06E
:105F5000CFF93A4B18880AF0DAFBFFF79DFE10EEF6
:105F6000100A0BF01DF8364AC4E90001CDE9000122
:105F70001021344807F060F9324A33493348FEF7BC
:105F80000DFA334B18880AF0C2FBFFF7A1FE10EEA2
:105F9000100A0BF005F82A4AC4E90A01CDE900010C
:105FA00010212C4807F048F92A4A2B492748FEF7C8
:105FB000F5F92A4B18880AF0AAFB64230093002302
:105FC000194640F68A6207F087F90AF0D7FF244A9B
:105FD000C4E90801CDE900011021224807F02CF99D
:105FE000204A21491948FEF7D9F9284600210AF02C
:105FF00062FB1E4BD8680AF0D3FF02460B46D4E979
:1060000008010BF097FA254650B101232B76FFF7D4
:10601000E5FEFFF72BFFFFF755FF012003B030BD72
:10602000D4E90A01124B00220BF0A2FA0028ECD1AD
:106030002076ECE7C23A0E0020E40320C63A0E00B8
:10604000E93E0E004EE10320F13E0E0060E5032024
:10605000C43A0E00AEE103200C3F0E00C03A0E0021
:10606000233F0E009EE103202B3F0E0050E403204F
:10607000000043400148002107F0B8BD68E4032058
:10608000704710B5202104460AF0D2FB204610BD0F
:106090000EB410B58DB00FAA016852F8044B0392EC
:1060A00000232020CDE90403CDE90042012004AA09
:1060B00006F05AFF0DB0BDE8104003B070470EB4B3
:1060C00010B58DB00FAA016852F8044B039200235B
:1060D0002020CDE90403CDE90042322004AA06F0D5
:1060E00043FF0DB0BDE8104003B0704710B5027219
:1060F000FF2242810022C0E9032242610276C2618E
:10610000024A034C1060C0E9004110BD74E4032052
:106110006C410E002DE9F8439DF820800446894625
:1061200016461F46B8F1000F02D0406807F0A6FEE1
:10613000217A606807F07FFE6068036849469B68C3
:1061400098476068002107F095FE054600BB0123D3
:10615000217A60683A4607F05CFE8742034609D11F
:106160003744BE421CD0606803685B69984706F8F4
:10617000010BF6E70B490C484A46FFF7A0FFB8F1C0
:10618000000F02D0606807F082FE2846BDE8F88361
:106190000346064904484A46FFF791FF0025EEE70B
:1061A0000125ECE7683F0E0070E403208D3F0E00F0
:1061B00007B500930123FFF7ADFF03B05DF804FBC3
:1061C00073B54389FF2B044610D0194E194D06F0C4
:1061D000CBFCB0F57A7F09D260890AF085FA0128F4
:1061E00004D031462846FEF7D9F8F0E701230DF137
:1061F000070228212046FFF7DBFF30B90D480E4982
:10620000FEF7CCF8002002B070BD9DF80730182BC7
:10621000F4D101230DF1070229212046FFF7C8FF21
:106220000028EBD09DF80730052BE7D1EBE700BF46
:10623000B13F0E0070E40320C63F0E002DE9F0418F
:106240009DF8188004460F4615461E46B8F1000F0B
:1062500002D0406807F012FE217A606807F0EBFD7B
:106260006068036839469B6898472E44B542606869
:1062700005D0036815F8011B9B689847F6E70121D4
:1062800007F0F8FD034670B1084909483A46FFF7A0
:1062900016FF0025B8F1000F02D0606807F0F7FD87
:1062A0002846BDE8F0810125F4E700BFD33F0E008A
:1062B00070E403201FB58DF80F2000930DF10F023D
:1062C0000123FFF7BBFF05B05DF804FBF8B50A46F4
:1062D0000C4605461A491B48FEF760F8002CB8BF6B
:1062E000EC687CB9012322461B212846FFF7E2FF18
:1062F0001549024606461348FFF7CAFEEC606C617A
:106300003046F8BD032C19DDA7101F2FA8BF1F278B
:10631000BA0062F07C020123D2B21B212846FFF7AB
:10632000C9FF3A460346094906460648FFF7B0FE4C
:106330004FF4FA635F43EC606F61E1E70127E7E741
:10634000F83F0E0070E4032002400E001E400E00D5
:106350000B4607490246086848B1002B08BFB2F552
:10636000006F04D1C36813B10021FFF7AFBF7047BE
:1063700074E403202DE9FF419DF828800546164668
:106380001F46B8F1000F04D04068019107F076FD78
:106390000199019100230DF10F022846FFF708FF34
:1063A000044660B19DF80F3003EA06023A43934277
:1063B00005D0019900232846FFF77CFF0446B8F179
:1063C000000F02D0686807F062FD204604B0BDE807
:1063D000F081000037B504460A463F480D463F4964
:1063E000FFF756FE606807F049FD00231A460F21AB
:1063F0002046FFF75FFF0023132210212046FFF7FE
:1064000059FF00233C2211212046FFF753FF0023B0
:10641000E02212212046FFF74DFF00232622132100
:106420002046FFF747FF00231A4617212046FFF7B3
:1064300041FF15F0010348D000230093E3222323FA
:1064400018212046FFF796FF00231A4619212046FF
:10645000FFF730FF00231A461A212046FFF72AFFD4
:1064600000231A461B212046FFF724FF15F0020FD8
:106470004FF000030CBF1A4688221C212046FFF76C
:1064800019FF00231A4620212046FFF713FF00239F
:10649000F02221212046FFF70DFF00231A46262176
:1064A0002046FFF707FF0023802227212046FFF721
:1064B00001FF00231A4630212046FFF7FBFE6068EB
:1064C00007F0E5FC012003B030BD2322182120464F
:1064D000FFF7F0FEB8E700BF70E4032042400E0073
:1064E00013B514460DF10702FFF762FE28B19DF8BF
:1064F00007301C420CBF0120002002B010BD13B5B4
:1065000014460DF10702FFF753FE28B19DF807303E
:106510001C4214BF0120002002B010BD07B5D243B9
:106520000093D2B20023FFF725FF03B05DF804FB10
:1065300037B501230DF107020F210446FFF738FE9E
:10654000054638B91E491F48AD22FFF7B8FD284659
:1065500003B030BD9DF8073013F0200F4FF001035A
:106560000BD02022E3610F212046FFF7D7FF164A08
:1065700016491448FDF712FFE9E7082217212046C3
:10658000FFF7BDFF18B10223114AE361F0E79DF860
:1065900007301A0709D50323E361082201230F21DD
:1065A0002046FFF7BBFF0B4AE2E75B07CFD504228B
:1065B000E26101230F212046FFF7B0FF064AD7E72B
:1065C00086400E0070E4032057400E00A5400E00E8
:1065D00060400E0070400E0080400E0007B5009332
:1065E0001346FF22FFF7C6FE03B05DF804FB2DE95A
:1065F000F3479DF828A005460C4691461F46BAF180
:10660000000F02D0406807F039FC07B3202F3E4648
:1066100028BF20267F2C26D83319802B01D9C4F11E
:106620008006012304223F212846FFF777FF00233D
:1066300064F07F0100934A463346C9B22846FFF70B
:1066400069FD804628B13444BF1BB144DDE74FF0FB
:106650000108BAF1000F02D0686807F018FC404644
:1066600002B0BDE8F087012304223F212846FFF74E
:10667000B5FFDCE72DE9F3479DF828A005460C4659
:1066800091461F46BAF1000F02D0406807F0F6FBB2
:1066900007B31F2F3E4628BF1F267F2C26D833194D
:1066A000802B01D9C4F18006012304223F21284612
:1066B000FFF734FF002364F07F0100934A4633461E
:1066C000C9B22846FFF7BAFD804628B13444BF1B43
:1066D000B144DDE74FF00108BAF1000F02D068685D
:1066E00007F0D5FB404602B0BDE8F0870123042245
:1066F0003F212846FFF772FFDCE7000030B585B088
:106700000D68D1E9043203954D6802958D680195B5
:10671000C96800910133044902F26C72044609F021
:10672000A9FB204605B030BDB6400E0003110A2279
:1067300000F00F0002FB0300704738B504460078F4
:106740001546FFF7F3FF08606078FFF7EFFF48603A
:10675000A078FFF7EBFF8860E078FFF7E7FFC860FD
:106760002079FFF7E3FF013808612DB9651D28780E
:10677000FFF7DCFF886138BD6079FFF7D7FF643031
:10678000A51D4861F3E7000070B5012388B00D46F0
:106790001A4610210446FFF7A3FEF0B10823012694
:1067A000204600960DEB03020021FFF7B3FC0446E0
:1067B00098B1324629460DF10900FFF7BEFF04A843
:1067C000FFF79CFF0848049A0849FDF7E7FD04A875
:1067D00009F0E2F9204608B070BD242200212846C5
:1067E0000BF002F80024F5E770E40320D4400E001B
:1067F00030B58BB00D4601A9FFF7C6FF044620B1A6
:1068000001A806F061FDC5E9000120460BB030BDCE
:1068100010B5044688B011B1406807F0DDFA204693
:10682000FFF7CEFC70B32046FFF782FE01231A4625
:1068300010212046FFF754FED8B109F0F5FCC0B98D
:1068400002A92046FFF7D4FFDDE9020109F0F3FBBE
:106850000F4B10491B68009304A8DDE9022309F0DF
:10686000A1FC0D48049A0D49FDF798FD04A809F014
:1068700093F90B4A002300214FF4006006F0B6FBA9
:1068800008B010BD07490448FFF719FCF1E700BF45
:10689000C8E10320B4E5032070E40320E2400E00C9
:1068A00051630D00FF400E000A2290FBF2F302FB41
:1068B000130093FBF2F102FB113140EA0110C0B268
:1068C000704770B5054600680C461646FFF7ECFFAA
:1068D00020706868FFF7E8FF6070A868FFF7E4FFC2
:1068E000A070E868FFF7E0FFE07028690130FFF76B
:1068F000DBFF20712EB9661DA869FFF7D5FF307048
:1069000070BD6A69642392FBF3F003FB1020FFF76C
:10691000CBFFA61D6071EFE7F0B587B0054602A872
:1069200016460C46FFF7EAFE1E48029A1E49FDF77E
:1069300035FD02A809F030F916B1686807F09EFA33
:10694000204601220DF1090100278DF80870FFF79C
:10695000B8FF01231A4610212846FFF73FFE0446E0
:10696000E8B1082300970DEB030239462846FFF7EC
:1069700065FC044660B101231A4610212846FFF742
:10698000CDFD16B1686807F082FA204607B0F0BD69
:106990004FF48D7205490348FFF791FBF1E74FF47F
:1069A0008F72F7E770E4032017410E0025410E00B7
:1069B00013B504466846CDE900230AF0DBFE9DF8D6
:1069C000102001462046FFF7A7FF02B010BD0000CF
:1069D000F0B5057E89B0044675BB09F025FC58B3B7
:1069E0000026002704A92846CDE9046706F084FBA9
:1069F00010B30125257609F034FC00950246C31733
:106A00002046CDE90223FFF7D3FF02A92046CDE9B6
:106A10000267FFF7EDFE124B12491B68009304A8B2
:106A2000DDE9022309F0BEFB0F48049A0F49FDF788
:106A3000B5FC04A809F0B0F8636973B106F094F8E6
:106A40002369C01A6369984207D306F08DF84FF0A6
:106A5000FF3120612046FFF739FC09B0F0BD00BFCF
:106A6000C8E10320B4E5032070E4032040410E0098
:106A7000014B024A1A60704770E4032056410E0031
:106A8000022A06D0032A02D0012A00D10160002088
:106A900070470B680360FAE710B50123037483683D
:106AA000044643B1C0689847012363740020BDE8E1
:106AB000104006F029B800680028F5D083680BB9AB
:106AC00009F0F6FEC368EEE738B50568044635B14F
:106AD0002846FEF74BF81021284609F0A9FE20466B
:106AE0001421BDE8384009F0A3BE10B50368044680
:106AF000ABB1586805F0B8FF88B923685A7C12B961
:106B0000586805F0B9FF2368586805F0BDFF206894
:106B10000023236018B1BDE81040FFF7D5BF10BDBA
:106B2000054A026000224260027380F8BD22C0F86C
:106B3000C822C0F8D022704798410E0010B5074C0B
:106B4000236843B94FF43570FDF7A5FA034608B141
:106B5000FFF7E6FF2360206810BD00BF78E4032044
:106B600038B50446406890B102232373FFF7BDFF98
:106B7000656855B12846FFF7B8FF286808B1FFF7E8
:106B8000A3FF0421284609F053FE0023636038BDAB
:106B900010B5054B03600446FFF7E2FF04F53070C3
:106BA000FDF7E4FF204610BD98410E0010B50446E5
:106BB000FFF7EEFF20464FF4357109F039FE20460D
:106BC00010BDF0B5044689B000F10D0600F14E0786
:106BD000237B1BB9012006F08BFBF9E7237B022BFB
:106BE00062D0A06805F060FFA06805F065FF94F82A
:106BF000BD328DF800303A463C23314606A806F0F7
:106C000035FE069D6B7833B9237B022B03D0012020
:106C100006F06EFBF5E7D4F8C8321BB3002006F08F
:106C2000F5F920B16B7813B906F03EFAFAE72B7844
:106C3000D4F8D0220592591E4B424B418DF80B30AF
:106C4000D4F8C832CDE903670BB909F031FE05ABC2
:106C50000093D4F8CC5204AB03AA0DF10B0104F558
:106C60003070A847A06805F01FFF237B022B15D0CA
:106C7000D4F8C8320025C4F8D05233B104F53071CD
:106C8000032208469847C4E9B2550023A06823733D
:106C900005F012FF07A8FDF7FDFC99E7A06805F0D5
:106CA0000BFF07A8FDF7F6FC09B0F0BD0068FFF781
:106CB00088BF00002DE9F743064688461420264980
:106CC0001746994609F0EAFD044630B10022C0E9B2
:106CD0000022C0E90222027442743460002C31D0D8
:106CE0001D49102009F0DAFD054668B100238360D4
:106CF00001463846FEF7F3F8BB68AA68BA60AB6095
:106D0000EA68FB68EB60FA602768256037B13846AF
:106D1000FDF72CFF1021384609F08AFD3068036822
:106D200083B10A9B4A46CDE9000341460B4B043030
:106D300005F092FE30B933681B7C4BB9012005F099
:106D400003FFF8E730680023336008B1FFF7BCFEAB
:106D5000304603B0BDE8F083444C0E00996A0D0044
:106D600030B5436887B00446C3B9083005F094FED7
:106D70000B4B059304200B4B02940493FDF78BF906
:106D8000054638B14FF4406300930749022302AA35
:106D9000FFF790FF656002A8FDF7E8FE07B030BD81
:106DA000AD6C0D00816A0D007C410E002DE9F043B1
:106DB000044685B080680C9F98460D46164605F03F
:106DC00073FE63681BB1237B03F0FF0933B1A06836
:106DD00005F072FE002005B0BDE8F083A06805F064
:106DE0006BFE002D3DD04122294604F10D000AF032
:106DF000A0FD84F84D908EB340F26F22314604F12D
:106E00004E000AF096FD84F8BC9200230293BB6802
:106E100004F530753BB10222394668469847FB6855
:106E20000393BB68029329466846FEF758F8029B15
:106E3000D4F8C822C4F8C832039B02926846D4F83A
:106E4000CC22C4F8CC320392FDF790FE0D9BC4F81F
:106E5000D032012084F8BD822073BCE784F84E60F4
:106E6000D3E72846B7E7000010B5054B0360037C65
:106E700004461BB9406808B106F0BEF9204610BDB3
:106E8000A8410E0010B50446FFF7EEFF204614217E
:106E900009F0CEFC204610BD10B5074B0360037C03
:106EA00004461BB9406908B106F0A6F92046FFF771
:106EB000DBFF204610BD00BFB8410E0010B50446F0
:106EC000FFF7EAFF20462C2109F0B2FC204610BD56
:106ED00010B5C0E901120022C260012202744361B0
:106EE000024A029B0260C36110BD00BFB8410E00A0
:106EF0007047704701207047012A08BF01600020D9
:106F0000704710B50821044609F092FC204610BDD8
:106F100010B51021044609F08BFC204610BD00007E
:106F200010B5054B044640F81C3B08F035FE201D0B
:106F300008F032FE204610BD20420E0010B5044677
:106F4000FFF7EEFF2046582109F072FC204610BDE5
:106F500010B5044B044640F8043BFFF7E1FF204620
:106F600010BD00BFF0410E0010B50446FFF7F0FF62
:106F70002046602109F05CFC204610BD20F0020391
:106F8000012B03D0431F58425841704718467047A1
:106F900008B1FDF784B8704708B548B1B0F1005F9B
:106FA00001D309F07FFCBDE808408000FDF773B80D
:106FB00008BD0B6803604B68436013B15A68013227
:106FC0005A60704790F9042091F904309A4213DB1B
:106FD00010DC90F9052091F905309A420CDB09DCB0
:106FE00090F9062091F906309A4205DBCCBF0120CA
:106FF00000207047012070474FF0FF3070470000BD
:10700000024A02604A684260704700BF00420E00B8
:1070100091F90420027191F90520427191F906203D
:10702000827191F90720C271704738B50C46054648
:1070300000F11C012046FFF7C5FF002809DB05F120
:1070400024012046FFF7BEFF0028D4BF0020012006
:1070500038BD4FF0FF30FBE738B504460D4604302D
:10706000043108F020FE05F1140104F11400FFF7CB
:10707000CFFF05F11C0104F11C0008F014FE05F11E
:107080002C0104F12C00FFF7C3FF95F9383084F888
:10709000383095F9393084F8393095F93A3084F838
:1070A0003A3095F93B3084F83B3005F13C0104F16E
:1070B0003C00FFF7ADFF95F9483084F8483095F96A
:1070C000493084F8493095F94A3084F84A3095F9C6
:1070D0004B3084F84B3005F14C0104F14C00FFF7C4
:1070E00097FF95F8543084F85430204638BD4A69EB
:1070F000036862F3160303600B695A1C438862F34A
:10710000CA134380CA68C3F3072362F3C703C3707B
:10711000704710B504468CB02422002103A80AF061
:1071200063FB2368C3F3160308936388C3F3C31395
:10713000013B0793E37803A8DB08069306F0C4F845
:10714000CDE9000103A9684606F0AEF809980CB035
:1071500010BD30B504468DB024220D4603A8002191
:107160000AF042FB2368E178C3F3160308936388AF
:10717000C3F3C313013B05EBD10503A807930695A1
:1071800006F0A2F8CDE9000103A9684606F08CF8E4
:1071900003A92046FFF7ABFF0DB030BD0368C1F374
:1071A0001602C3F31603934213D310D84288C1F3D7
:1071B000C353C2F3C3129A420BD308D8C378DB0877
:1071C000B3EBD16F05D38CBF0120002070470120A5
:1071D00070474FF0FF307047024A02600022426061
:1071E000704700BF00420E0030B5002387B0838097
:1071F00083710D4605AB00931349044604AB03AA03
:10720000284606F011F8032807D1039B2371049B3D
:107210006371059BA37107B030BD0C4904AB03AA91
:10722000284606F001F8022804D1039B2371049B31
:107230006371F0E7064903AA284605F0F5FF012827
:1072400004BF039B2371E6E7C0410E00C3410E005B
:10725000FF3F0E0010B5044B03600023044643605B
:10726000FFF7C2FF204610BD00420E0038B50025D2
:107270007F2304460370C0E90155C0E90355C0E906
:1072800005550A491C30FFF7E5FF094904F12400C0
:10729000FFF7E0FFC4E90B550649656304F13800C8
:1072A00008F0C5FCA564204638BD00BFC9410E00EA
:1072B000D2410E0067460E0090F9043090F9052087
:1072C00090F90610002BB8BF0848C2EB02124FEA33
:1072D0008202BDBF00FB0320401840424FF46160B2
:1072E000A4BF00FB03235818704700BFF0F1FFFF55
:1072F00090F9073043B990F904308B6090F905306C
:107300004B6090F906300B60704790F9073030B54C
:10731000B3B990F904508C682C44D1E900328C60E8
:1073200090F90540002DB5BF121B12194A604A6042
:10733000B5BF90F9062090F906209B1A9B180B60A8
:1073400030BD38B544680546AB68A34207D0204637
:10735000FFF724FF04340028F6D1012038BD0020B7
:10736000FCE738B5046905466B69A34207D020469F
:10737000FFF714FF04340028F6D1012038BD0020A7
:10738000FCE773B505460E46FFF7EBFF90B901A881
:107390000191FFF7BEFE2B78314643FA00F42846F0
:1073A000FFF7CFFF04F00104002C08BF044620467D
:1073B00002B070BD0024FAE72DE9F84300244568C7
:1073C000804626462746D8F808309D421ED067F3EF
:1073D000160966F3DA5964F3DF69B9F1000F09D1D0
:1073E0002F686E88EC78C7F31607C6F3C316E40857
:1073F0000435E8E767F3160166F3DA5164F3DF61F9
:107400002846FFF7CBFE0028EADCF1E7002067F30F
:10741000160066F3DA5064F3DF60BDE8F88300001D
:10742000054A08B502600022034642600830FFF7B3
:10743000D3FE184608BD00BF10420E000023436073
:10744000838183737047000030B5044687B00D46D2
:1074500011B10B784D2B03D02046FFF7EFFF1BE057
:1074600005AB00930F4904AB03AA284605F0DCFEE8
:107470000328F1D1039B2371049B6371059BA371C6
:107480002F2128460AF0F5F940B1411C04F108000B
:10749000FFF7AAFE0123E37107B030BDA081A073FE
:1074A000F8E700BFDB410E00104B114910B5044650
:1074B00040F8043B08F0BBFB04F11400FFF78CFE1E
:1074C0000B4904F11C0008F0B2FB04F12C00FFF79B
:1074D00083FE04F13400FFF7A3FF04F14400FFF73B
:1074E0009FFF002384F85430204610BD20420E0038
:1074F00067460E002DE9F74F044608460AF0E2F908
:1075000000250646019004F134083F49019801AA7C
:107510000BF0EAF80146002862D0012D05F10103C5
:1075200053D0022D56D0002D46D1024692F800903D
:10753000B9F1400F1546174602F10102F6D80022B4
:107540002A7004F11C0008F0D0FB012285F800909D
:1075500084F854202A786AB397F800A00AF1FF3221
:107560003F2AB946BB4607F10107F5D9002304F1CC
:107570002C0789F8003029463846FFF735FE89F890
:1075800000A0BAF1000F15D05D461BF801ABBAF1AF
:10759000400FF9D800222A704946201D08F0A5FBAB
:1075A00085F800A004F11400BAF1000F06D02946B6
:1075B000FFF71AFE0125A8E71D46A6E73946FFF7A3
:1075C00027FD237E013B2376F4E74046FFF73CFF8F
:1075D00002259AE704F14400FFF736FF032594E7FC
:1075E00094F93B3043B194F94B202AB904F13400AB
:1075F000FFF724FF84F85420304605F0FDFD94F891
:10760000540003B0BDE8F08FE5410E0038B5134BD0
:1076100004460D4640F8043B114908F008FB04F10C
:107620001400FFF7D9FD0E4904F11C0008F0FFFA21
:1076300004F12C00FFF7D0FD04F13400FFF7F0FE59
:1076400004F14400FFF7ECFE002384F8543029468F
:107650002046FFF74FFF204638BD00BF20420E00F6
:1076600067460E0008B50346FFF7B6FD8A681A7133
:107670004A685A710A689A71184608BD13B5074BD3
:1076800003600023044643606846FFF7EBFF69464A
:107690002046FFF7BDFC204602B010BD00420E00A0
:1076A00091F9073043B991F90430836091F90530BD
:1076B000436091F906300360704707B50023014627
:1076C00001A80193FFF713FD019803B05DF804FBD7
:1076D000194B70B504460D4640F8043B043108F0E0
:1076E000F1FA05F1140104F11400FFF789FC05F12A
:1076F0001C0104F11C0008F0E5FA05F12C0104F16D
:107700002C00FFF77DFC0D4EAB6BA36305F13C0134
:10771000666304F13C00FFF773FCAB6CA364666422
:1077200005F14C0104F14C00FFF76AFC95F8543068
:1077300084F85430204670BD20420E0010420E00E6
:10774000F8B50C4651F8043B074640F8043BFFF7F8
:10775000BFFFD4E9182304F16806C7E918230FCE48
:1077600007F168050FC50FCE0FC533682B60D4E94C
:10777000242304F19806C7E924230FCE07F19805C6
:107780000FC50FCE0FC533682B60D4E93023C83442
:10779000C7E930230FCC07F1C8050FC50FCC0FC5C3
:1077A00023682B603846F8BD10B50446383008F021
:1077B000F3F92069FFF7ECFB6068FFF7E9FB20466F
:1077C00010BD000038B5094D2B6863B96020FCF787
:1077D00062FC044630B1064B40F8043BFFF764FE00
:1077E0006423E3652C60286838BD00BF7CE4032077
:1077F000F0410E0005F068BD01390B2915D8DFE80E
:1078000001F01608160616061616061606161E208F
:10781000704783070DD1642290FBF2F302FB130043
:1078200000280CBF1C201D207047002070471F201F
:1078300070471C207047F8B50123CB6090F90430E5
:10784000013B0B610023C1E9003306460C46174695
:107850008B602046FFF7CEFF96F90630A2699A4268
:1078600003D0E3680133E360F3E796F90550012D97
:1078700013D0E3686069013DC5EBC5051D44E560B3
:1078800096F9041000F26C70FFF7B6FF8542C4BF92
:10789000073DE5602046FFF7ADFF214606F10800F1
:1078A000FFF726FD3846FFF730FD2046BDE8F840DB
:1078B00005F00ABDF0B590F8583085B004462BB9F4
:1078C000FFF780FF011D201DFFF7C6FB94F93F3035
:1078D000002B69D0D4E9182304F1980739463E46B5
:1078E00002A8CDE9022305F0DFFC0FCE04F1C805A4
:1078F0000FC50FCE0FC533682B6004F1300102A80D
:10790000FFF77EFB02AA394604F13800FFF793FF28
:10791000C4E9240104F1180102A8FFF771FB02AACF
:1079200004F1C80104F14800FFF785FFD4E924679A
:107930000B468642024677EB0301C4E93023D4E9C3
:10794000180124DAB04271EB070519DA002323602D
:107950002068FFF713FB04F16801D4E9186701916F
:1079600020BB04F13000FFF7A7FC361A67EBE07785
:10797000019902A8CDE9026705F096FC05B0F0BDBB
:10798000904271EB0303B4BF01230223DFE790426F
:1079900071EB030301DA0323D9E7B04271EB07036C
:1079A000B4BF04230523D2E70623D0E704F118006F
:1079B000D9E72DE9704304460E460FCCDCB001AD8B
:1079C0000FC50FCC0FC523682B6001A805F07CFC08
:1079D000044606F12C000D46FFF76EFC96F93B308D
:1079E00014EB000845EBE0791BB3062321A8209394
:1079F000FFF75AFD31460AA8FFF76AFE0AA921A837
:107A0000FFF72AFB20A8CDE93889FFF753FF0AA822
:107A1000FFF786FA2098FFF7B1FA38B106F11400A3
:107A2000FFF74AFC14EB000845EBE07921A8FFF7CB
:107A300077FA404649465CB0BDE8708330B591F9AD
:107A4000073097B00446C3B900F168056846FFF7F0
:107A5000D7FA69462846FFF723FE211D6846FFF73F
:107A600037FE69462846FFF7A4FFC4E918016846B7
:107A7000FFF756FA2046FFF71DFF17B030BD000094
:107A800030B5D0E918320B4D5B194FF0000585B0C9
:107A900045EB0202C0E9183204460191FFF70AFFE4
:107AA000019902A8FFF7ACFA02A92046FFF7C6FF2A
:107AB00005B030BD805101002DE9F0418AB0174674
:107AC00006460D462422002101A81C4609F08CFE22
:107AD000062F29D829463046FFF78EFE002C804617
:107AE00024DDA6F26C76013D06960595012301A8DA
:107AF0000493FFF77FFE079A049BBA4201D001333B
:107B0000F5E700210122944206D101B10493049CBF
:107B100020460AB0BDE8F0810733434504DC01325A
:107B2000062A4FF00101EED10024F1E7F0D0013D2B
:107B3000CDE90405A6F26C76069601A8FFF75AFE79
:107B4000079B0499BB4202D001390491F5E700205C
:107B500001226442944203DC0028D8D00491D6E785
:107B600007390029E0DD0132062A4FF00100F1D18A
:107B7000DAE700002DE9F046CDB0044610A80D4626
:107B8000FFF7DEFD002320460293FFF715FC58BBEC
:107B90002AA8FFF792FD0290FFF714FEC16D02A81C
:107BA000FFF7D7FADFF80CA22AA8FFF786FD0299A3
:107BB0000390064603A8FFF7F1FA002800F3F280CD
:107BC00031462046FFF7DDFB0746002800F0948091
:107BD000A36C013B042B00F28F80DFE813F0070059
:107BE00007009600B800D5000290DBE72AA907A895
:107BF000FFF738FD07A92046FFF717FA00280DDA2E
:107C000004F11C0107A8FFF7FBF907A910A8FFF76B
:107C100015FFDDE92823C5E9182394E06CD1A36C96
:107C2000012B25D0022B67D104F11C0104A8FFF71A
:107C3000E7F904F12409494604A8FFF7C3F900282D
:107C40005ADC04A907A8FFF7DBF907A910A8FFF77A
:107C5000F5FED5E91801DDE92823904271EB030315
:107C600041DB9DF81430E26A13448DF81430E2E7EA
:107C7000E26A94F9213093FBF2F63C21514302FB76
:107C80001636DDE92823521843EBE17310A8CDE93D
:107C90002823FFF70FFEDDE9282307A904A8CDE973
:107CA000042305F001FB2B9BE16A9B1B93FBF1F284
:107CB00001FB1233089A07A8D21A94F922300892CD
:107CC000079305F001FBCDE9280110A8FFF7F2FDAD
:107CD0002AA904A8FFF7D2FC04F1240104A8FFF7A5
:107CE00071F9002808DA2AA8FFF7E7FC01462046C8
:107CF000FFF747FB00288CD1514607A8FFF7AAFAE7
:107D000007A910A8FFF7BCFE4EE72E992F98D4E9DB
:107D10000B32013100F26C70FFF7CEFE2D9B9842C2
:107D2000EAD104F11C0107A8FFF76AF907A910A816
:107D3000FFF784FEDDE92801D5E9182382428B4153
:107D4000DADAC5E918012846FFF7B4FD2BE0E66A48
:107D5000002E08DA2E992F98013100F26C70FFF78F
:107D60004BFD3044461C2AA8FFF7A7FCB6EBD06FAA
:107D7000C2D12AA907A8FFF775FC07A92046FFF77B
:107D800054F90028B8DCCCE72AA907A8FFF76AFC59
:107D900004F11C0107A80191FFF714F900280199CB
:107DA000AADCC0E7002711A8FFF7BAF838464DB0A3
:107DB000BDE8F086C9410E0037B58D6804466846B7
:107DC000FFF7F7F86A462946204606F08BFB01A824
:107DD000FCF760FC204603B030BD37B5CD680446E3
:107DE0006846FFF7E6F86A462946204606F056FB45
:107DF00001A8FCF74FFC204603B030BD37B50D6934
:107E000004466846FFF7D5F86A462946204606F03C
:107E100092F901A8FCF73EFC204603B030BD70B5D6
:107E2000D1E90036F61A0023C0E900330446836026
:107E3000B0100D46FFF7B0F8D5E90053C4E90000D3
:107E40000644A6602A460146934205D009B1166849
:107E50000E6004310432F7E75B1B18446060204673
:107E600070BD38B50D4611F8043B044600F8043BDC
:107E7000FFF7D5FF05F1100104F11000FFF7CFFF68
:107E8000204638BD38B504460D46FFF7EAFF05F138
:107E90001C0104F11C00FFF7B3F805F1240104F103
:107EA0002400FFF7ADF8EB6AE3622B6B23636B6B87
:107EB000636305F1380104F1380007F003FFAB6C90
:107EC000A364204638BD2DE9F043D0F82080D1B01E
:107ED00081460C46154600260027D9F82430434534
:107EE00029D0414601A8FFF7CDFFAB680BB908F0D8
:107EF000DFFCEB6801A928469847B0B1214614A8D9
:107F0000FFF71EFC14A901A8FFF734FEDDE92C23BE
:107F100010B156EA070103D0B24273EB070101DA50
:107F200016461F4615A8FEF7FBFF01A8FFF73CFC0D
:107F300008F14C08D1E756EA070308D02046C4E907
:107F40001867FFF7B7FC012051B0BDE8F0830020AF
:107F5000FAE700001FB5084B03936A46074B0293EC
:107F6000FFF7B1FF029B04461BB169460322084696
:107F70009847204604B010BDF56E0D00F96E0D0057
:107F80002DE9F0470668BCB007468A460024002564
:107F90007B689E421CD0337CC3B151466846FFF7D4
:107FA000CFFB69463046FFF7D5FF40B154EA0503E1
:107FB000DDE9188905D0A04579EB050301DBA04672
:107FC000A94601A8FEF7ACFF44464D463036DFE730
:107FD000204629463CB0BDE8F0872DE9F047066809
:107FE000BCB007468A46002400257B689E421DD00F
:107FF00033699B0718D551466846FFF7A1FB6946D0
:108000003046FFF7A7FF40B154EA0503DDE91889C0
:1080100005D0A04579EB050301DBA046A94601A8E0
:10802000FEF77EFF44464D463036DEE720462946C1
:108030003CB0BDE8F08700002DE9F04FDFF85CB000
:108040000668BDB007468A46002400257B689E422C
:108050001FD05946304607F0C5FEC0B151466846AC
:10806000FFF76EFB69463046FFF774FF40B154EAF4
:108070000503DDE9188905D0A04579EB050301DB8F
:10808000A046A94601A8FEF74BFF44464D463036B0
:10809000DCE7204629463DB0BDE8F08FCF420E0018
:1080A00081422DE9F04104460E4622D0D1E9005824
:1080B0000068A3681B1AA8EB05079B10B3EBA70F7A
:1080C0004FEAA70118D20846FEF766FF06460346A8
:1080D000A84505D00BB12A681A6004330435F7E7C8
:1080E0002068FEF755FF26603E44A66023681F44C3
:1080F00067602046BDE8F0816268121AB1EBA20FFA
:1081000006D8A845F2D03A46294609F053FBEDE7D8
:1081100012B1294609F04EFBD4E90032D11A336876
:108120000B4471689942E1D00AB1186810600433B9
:108130000432F7E738B50D4611F8043B044600F861
:10814000043BFFF7ADFF05F1100104F11000FFF74C
:10815000A7FF05F11C0104F11C00FEF759FF05F112
:10816000240104F12400FEF753FF204638BD00002F
:108170002DE9F74FD0E900693B4D3C4BA9EB0604D4
:10818000A4106C439C428A4607461146A84602D179
:10819000374808F08AFB012C224638BF0122A41878
:1081A000AAEB06055DD254B19C4228BF1C464C2068
:1081B00060430091FBF76FFF0099834600E0A34600
:1081C0001BEB050001D0FFF75DFE5B4631468A459B
:1081D0000AD033B1184601910093FFF753FEDDE951
:1081E00000314C314C33F2E7AD0808FB05FA2AF0B8
:1081F00040454FF04C0A0AFB05FA06EB0A050AF166
:108200004C0ADA4453462946494513D1A9EB0505E2
:10821000AD0808FB05F525F040454FF04C0808FB7C
:1082200005A5B046C8450FD04046FFF7BDFA08F196
:108230004C08F7E7184601910093FFF723FE0199D8
:10824000009B4C314C33DFE716B13046FBF727FF7C
:108250004C2000FB04B4C7E900B5BC6003B0BDE826
:10826000F08F1C46A3E700BF1BCA6B286B28AF0129
:10827000573D0E0038B5D0E90135AB4204460A46F9
:1082800007D013B11846FFF7FDFD63684C336360F8
:1082900038BD1946FFF76CFFFAE730B597B00446D2
:1082A00003A801920D46FEF7E1FF01230199159302
:1082B00003A80E95FFF73EFF03A904F12000FFF786
:1082C000D9FF03A8FFF770FA204617B030BD0000B1
:1082D0002DE9F047D1E900371B4DFF1ABC100023F0
:1082E0006C43C0E9003306468846836008D0174BCC
:1082F0009C4201D908F0D6FA3846FBF7CCFE04467A
:108300002744B760D8E900A7C6E90044D046A14693
:1083100047450BD0B9F1000F03D041464846FFF75F
:10832000B1FD09F14C0908F14C08F1E7A7EB0A0788
:10833000BF087D4325F040454C2000FB0544746098
:108340003046BDE8F08700BF1BCA6B286B28AF0121
:108350002DE9F04107468846164615460446444531
:1083600013D07DB12146284607F0ACFC23692B6170
:10837000D4E9062304F12001C5E9062305F1200014
:10838000FFF7A6FF30343035E9E7E01B0409044865
:10839000444324F07044302000FB0460BDE8F081C9
:1083A000ABAAAA0A2DE9F74FD0E90068A8EB0604AA
:1083B0002311334C5C43334B9C4205460F46934696
:1083C00002D1314808F071FA012C224638BF01224F
:1083D000A418A1EB060A50D244B19C4228BF1C4607
:1083E00030206043FBF757FE814600E0A14619EBC1
:1083F0000A0A11D05946504607F064FCDBF81030E9
:10840000CAF81030DBE906230BF12001CAE9062384
:108410000AF12000FFF75CFF39464A463046FFF775
:1084200097FF414600F130023846FFF791FF37468B
:108430008346474514D0D7E908A35345019306D096
:108440005046FFF7B1F90AF14C0A019BF5E7386A8B
:1084500008B1FBF724FE384607F09EFB3037E8E70B
:1084600016B13046FBF71BFE302000FB0494C5E933
:10847000009BAC6003B0BDE8F08F1C46B0E700BFC6
:10848000ABAAAAAAAAAAAA02573D0E00F0B505688F
:108490008DB004460E4663689D422F4609D028469B
:1084A000314607F09FFC30350028F4D038460DB037
:1084B000F0BD2249684607F0BAFB002000210023E6
:1084C000CDE9060131466846CDE9083304930A93A5
:1084D00007F00BFCD4E901539D4220D075B16946E9
:1084E000284607F0EFFB049B2B61DDE9062308A972
:1084F000C5E9062305F12000FFF7EAFE6368303383
:10850000636020463146FFF7C1FFDDE908450746B5
:10851000A5420AD02046FFF747F94C34F8E76A46EF
:1085200029462046FFF73EFFEBE7089808B1FBF726
:10853000B6FD684607F030FBB8E700BF67460E009F
:10854000704710B51021044608F072F9204610BD9E
:108550000368C9B29B68184730B5034DC0E90223D0
:10856000C0E9005130BD00BF5C420E00406805F01C
:1085700033BC10B50446006805F089FC204610BDE8
:108580002DE9F0418AB004464068019005F076FC80
:108590001E22002102A8A76809F026F90026EFB1E3
:1085A00023681E2FB84628BF4FF01E08DD6802AAB8
:1085B000434631462046A847054658B90A480B4964
:1085C0003246FBF7EBFE01A8FFF7D3FF28460AB0BF
:1085D000BDE8F081A7EB08074644E0E701A8FFF7F4
:1085E000C8FF0125F2E700BF60E5032028420E0026
:1085F0002DE9F7430446406801900D4616461F4694
:1086000005F03CFCA7B1E168606841F0500105F05D
:1086100016FC290A6068FFF79BFF29466068FFF790
:1086200097FF6068002105F025FC48B1002400E0B8
:10863000012401A8FFF79DFF204603B0BDE8F083A9
:10864000202F217B6068B84628BF4FF02008012307
:10865000424641F0500105F0DCFB08F0A1F8036848
:108660001B6998474045E1DB06EB080908F098F8DC
:1086700003685B69984706F8010B4E45F6D14544FF
:10868000A7EB0807BEE72DE9F74F044640680190C5
:108690000E4690461D4605F0F1FB4FF00109B9F179
:1086A000000F2AD04DB3E168606841F0500105F039
:1086B000C6FB310A6068FFF74BFF60683146FFF781
:1086C00047FFA5F11E0A4746A6EB080B606817F89E
:1086D000011B0368013D9B68984755450BEB070656
:1086E000B84601D0002DF1D16068012105F0C2FB30
:1086F0000028D7D04FF00009D1E701A8FFF739FFD4
:10870000484603B0BDE8F08F2DE9F0438BB00E462C
:1087100015468046406801901C4605F0AFFBAE420E
:1087200029D2264425448CB11E2C2746D8F8003087
:1087300028BF1E27F61BD3F8089002AA3B463146F5
:108740004046ED1BC84748B9002400E0012401A8B9
:10875000FFF70FFF20460BB0BDE8F083D8F80030DC
:1087600002AAD3F80C9029463B464046C847002849
:10877000EAD0E41BD7E7E9D9002CE7D0D8F80030DD
:108780001E2C274628BF1E27D3F8089002AA3B4676
:1087900031464046C8470028D6D0D8F8003002AA53
:1087A000D3F80C9029463B464046C8470028CBD01A
:1087B0003E443D44E41BDFE703680A7883F8B120B8
:1087C000012183F8B0107047022A06D0032A02D094
:1087D000012A00D10160002070470B680360FAE7AE
:1087E000012A034602D1016000207047022A04BF1B
:1087F000D1E90001C3E90001F6E710B4426803467D
:10880000541001EB6200D20748BF0A591B685DF89B
:10881000044B48BFD3581847D0F8C83001461BB1A5
:10882000D0F8CC30C030184770470000F8B5124D72
:108830000846002A18BF15460F461E4609F05FF885
:10884000402817D8284609F05AF840F26E2398427B
:1088500010D84330FBF721FC044648B1394600F8F4
:10886000016B09F027F8294604F1420009F022F8CB
:108870002046F8BD0024FBE767460E00F0B59FB028
:108880000A4600230E46011D08A800F005FE0898C0
:10889000002109F0CBFF054608A807F07DF9002D5F
:1088A00060D008A9284609F0AFFF0C9B2E492F483D
:1088B0003246FDF7EDFB00221146284609F0ACFFD9
:1088C000082206A9284609F0C5FF0C9F4A2F39DD6A
:1088D000274B069A9A4235D1264B079A9A4231D1B4
:1088E000A7F1080210460592FBF7D7FB0446C0B17A
:1088F00027440146059A284609F0ACFF17F8093CC1
:10890000ABB9631C1846059308F0F9FF3F28059B97
:108910000DD804F142020092174914483246FDF77F
:10892000B7FB284609F068FF20461FB0F0BD134989
:108930000E483246FDF7ACFB4321204607F078FF96
:108940000024EEE7BDF81E3002939DF81D30019320
:108950009DF81C3000930A49069B04483246FDF7F7
:1089600097FBEDE72C46DFE770420E0080E4032022
:108970006376B6310108410084420E00A6420E0023
:10898000D4420E002DE9F8438046284B48F8043BBA
:108990000446404600F098FC022264230025C4E906
:1089A0001B230823E367C4E92055C4E92255C4E921
:1089B0002455C4E92655A5672020FBF76CFBE66F1C
:1089C000A067013E760800EB860907464FF4007069
:1089D000FBF761FB00F50073C4E92503C4F8883098
:1089E0004FF4FA614FF47A73C4E92D1347F2305310
:1089F00047F82600C4F88400C4F88000C4F890004A
:108A0000C4E92855C4E92A550949C4F88C90C4F82A
:108A10009C90C4F8B050C4F8BC30C4F8C85040466C
:108A200000F098FC2046BDE8F88300BFF0440E003B
:108A300019430E0038B5064C23683BB9D020FBF72C
:108A40002AFB054608B1FFF79DFF2560206838BD69
:108A500084E4032010B5D1E9002386B00021044648
:108A600004910AB9D90705D5CDE902230F4B059327
:108A70000F4B049302AB93E803006A4682E80300BD
:108A800094E8030083E8030092E80300049A84E872
:108A90000300A168A260059A04911846E168E260AB
:108AA0000591FCF763F8204606B010BDFB870D006A
:108AB000E1870D0010B503680446586F04F01CF8F8
:108AC000204610BD10B502698368043A93420446FB
:108AD00002D00433A36010BDC068FBF7E0FA6369FD
:108AE0001A1D62615B68E36003F500722261F1E7C1
:108AF0002DE9F04F87B004460190406FDFF8A89051
:108B0000DFF8A8A003F0F0FFDFF8A4B0D4F88030BD
:108B1000D4F89020934205D101A8FFF7CBFF07B00E
:108B2000BDE8F08F04F1780004F104081F68FFF736
:108B3000C9FF404600F0A4FE002302464146064617
:108B400002A800F0A9FC029840F2022109F06EFE92
:108B5000054602A807F020F8CDB108220DEB02016E
:108B60002846CDE9029A09F087FE07F1420008F095
:108B7000C6FE394600F14302284609F07DFE28462C
:108B800009F03AFE074832465946FDF781FA314668
:108B9000404600F0B5FE002FB8D04321384607F01C
:108BA00047FEB1E780E403206376B6310108410057
:108BB00027430E00002908BFB0F5006F38B505D077
:108BC000002908BF40280BD1092A09D105490648C8
:108BD000FDF75EFAFFF72EFFBDE83840FFF788BFCC
:108BE00038BD00BF44430E0080E4032070B586B05A
:108BF000044604F069FA48B9434B02A9CDE90230B2
:108C000004F1C000FFF726FF06B070BD94F8B25023
:108C10001DB1012384F8B330F6E703F0A5FFD4F8C3
:108C2000A830C01AD4F8AC309842EDD3261D29469E
:108C3000304600F031FE0146C4F8A400002852D0AE
:108C40002046FFF71BFE0546C4F8A000002835D0DB
:108C500003F08AFF02AE00252C4BC4F8A800314671
:108C600004F1C00002930395FFF7F4FED4E9283025
:108C700003F1420200922649264AA4F8B050A842C5
:108C800008BF0A4601332449244884F8B350FDF74D
:108C9000FFF9FDF753FFD4F8A020214B0593CDE950
:108CA000006511461F4B0294049311F8013B4232B8
:108CB000FEF77CF83046FBF759FFA5E7D4F8A4206F
:108CC00019491648FBF76AFB0121304600F0E4FD24
:108CD000D4F8A4102A46304600F01AFCD4F8A0308C
:108CE000002BB5D195E7D4F88030D4F890209A4283
:108CF00007D01B68C4F8A03004F17800FFF7E2FE4B
:108D0000ECE7C4F8A00084E7A58D0D00FD900D00F0
:108D100073430E00EC450E0094430E0080E40320E4
:108D2000B9870D00C9870D0077430E00C368CA6874
:108D30009B1A9B105A1ED0E900301B1A9B1003EBA4
:108D4000C21388680A68801A03EBA000704737B521
:108D500005460190406F03F0C7FE05F1800105F163
:108D60009000FFF7E3FF044650B9281D00F0E2FD34
:108D7000D5F8A03004461BB1D5F8A43003B90134AE
:108D800001A8FFF797FE204603B030BD38B5054671
:108D90000C4680F8B21021B9FFF7D9FF08B185F869
:108DA000B34038BD13B5044604F08EF990B103F01A
:108DB000DBFED4F8B430C4F8AC300D4BC4F8A800D6
:108DC00000936946002304F1C0000193FFF742FEBF
:108DD00002B010BD94F8B2301BB1012384F8B33057
:108DE000F6E72046FFF7B3FF0028F6D0F0E700BF14
:108DF000ED8B0D002DE9F34104460190406F03F027
:108E000073FE04F1800104F19000FFF78FFFE36E21
:108E1000834202D22046FFF76BFEDFF84880104FF6
:108E2000261D304600F086FD236F984205DC01A820
:108E3000FFF740FE02B0BDE8F0810121304600F0AE
:108E40002BFD05460028ECD001460022304600F0FC
:108E50005FFB2A4641463846FBF7A0FAE1E700BF30
:108E600080E40320B3430E0013B50446002004F051
:108E7000DDF8012805D012491248FDF720F902B0AB
:108E800010BD04F1740003F01FFE0F4A00230021FF
:108E90004FF4046004F0AAF8FDF750FEFDF760FF00
:108EA000201D00F075FC2046FFF7A4FF074B009340
:108EB0006946002304F1C0000193FFF7CBFDDEE714
:108EC000C6430E0080E40320B58B0D00A58D0D0078
:108ED00070B50368044663B1436A45691E1DAE421E
:108EE00004D955F8040BFBF7DAF8F8E72068FBF72C
:108EF000D6F8204670BD2DE9F04706468946406AFF
:108F000071697368471A09EBA7050135B3EB450F83
:108F1000144627D95D1B6D083268AD000CB14FEACD
:108F200089042C441444031DA142A3EB010213D96C
:108F3000994202D0204608F03DFC74612368F3603A
:108F400003F500733361E3197362E359F36103F5C9
:108F500000733362BDE8F0879942EED0381D801A65
:108F60002044E8E703F102084B452CBF9844C8446D
:108F7000B8F1005F01D307F095FC4FEA8800FBF7DA
:108F80008AF8A8EB05056D088246AD000CB14FEAE2
:108F90008904726A716904322C449142544403D0AA
:108FA000521A204608F006FC3068FBF778F8C6E94C
:108FB00000A8C2E72DE9F04186B004469DF8305084
:108FC0009DF834302B430F461646FFF72FFC05461D
:108FD000002842D0434B44494448002E18BF334632
:108FE0003A46FDF755F8606F059403F07DFDD4F81F
:108FF0009820D4F89030043A934204F1780804F1B0
:10900000900604F180072BD003B11D60D4F8903096
:109010000433251DC4F89030284600F08BFC3946F7
:1090200003903046FFF782FE029004F04DF8DDE930
:10903000023200902E492D48FDF72AF8284600F00C
:1090400079FC00283ED02046FFF752FD2046FFF76E
:10905000D1FE05A8FFF72EFD012006B0BDE8F08186
:1090600039463046FFF762FE6FF06043984202D106
:10907000204807F01AFCD4F89C30A26F9A1AE36FCC
:10908000A3EBA203012B04D8002201214046FFF7E5
:1090900032FF4FF40070D4F89C80FAF7FCFFC8F858
:1090A0000400D4F8903003B11D60D4F89C301A1D30
:1090B000C4F89C205B68C4F8943003F50072C4F8CF
:1090C0009820A6E739463046FFF730FEE36E83422C
:1090D000B9D303F0F9FF0028B5D007490348FCF7DE
:1090E000D7FFB3E767460E00E9430E0080E4032094
:1090F00041440E0011440E006D440E0073B590F80B
:10910000B0300446002B41D090F8B130D0F8A42004
:10911000002B3DD052495348FCF7BAFFD4F8A43095
:10912000D3B1261D0021304600F0B6FBD4F8A430A0
:10913000984205460DD10121304600F0ADFB0022DA
:109140002946304600F0E4F9474946482A46FCF7EC
:109150009FFF0023C4F8A430D4F8A00010B143212D
:1091600007F066FB0023C4F8A030D4F8B830C4F888
:10917000AC303E4B00936946002304F1C0000193DC
:10918000FFF768FC03F0F0FCC4F8A80002B070BD63
:1091900037493448FCF77CFFD4F8BC30C4F8AC3015
:1091A000D4F8A4304BB1D4F8A00010B1432107F09B
:1091B0003FFB0023C4F8A030DBE7606F009403F0AE
:1091C00093FCD4E92032934213D0D4F8A02043F882
:1091D000042CD4F88030043BC4F880306846FFF794
:1091E00069FC24491F48FCF753FF2046FFF780FC29
:1091F000BFE704F1800104F19000FFF797FD6FF0E5
:109200006043984204F1780502D11B4807F04DFBFA
:10921000D4F88C20A36F9A4204D10122114628462B
:10922000FFF769FE4FF40070D4F88C50FAF733FF63
:1092300045F8040CD4F88C301A1FC4F88C2053F86D
:10924000043CC4F8843003F50072C4F8882003F5A8
:10925000FE72C4F88020D4F8A020C3F8FC21BDE73A
:1092600080440E0080E4032093440E00ED8B0D003B
:10927000A3440E00B5440E0011440E00014B024AF7
:109280001A60704780E40320DC440E0010B5074BE1
:10929000044640F8C03BFBF769FC04F17800FFF797
:1092A00017FE201D00F0B2F9204610BDF0440E005C
:1092B00010B50446FFF7EAFF2046D02107F0B8FAC0
:1092C000204610BD01207047F8B51F4D1F4B0446C6
:1092D000294640F8043B06F0AAFC1D4904F114009D
:1092E00006F0A5FC294604F1240006F0A0FC0023AA
:1092F000C4E90E33C4E91233C4E91433C4E91633A4
:10930000C4E9183384F834302364082363642020CC
:10931000FAF7C1FE656C2064013D6D0800EB85071E
:1093200006464FF40070FAF7B6FE00F50073C4E984
:10933000170346F82500E064A064A065676523650F
:1093400067662046F8BD00BF67460E00FC450E006C
:10935000FC440E007FB5051D0446284606F0C5FCFA
:109360000E49684606F063FC6946284606F04CFD47
:109370000646684606F010FC6EB1E3680022013B29
:109380002946684606F056FD6946284606F0A5FCC3
:10939000684606F001FC204604B070BD01450E0091
:1093A00010B5C36B044613B93C3003F075FBE06B9A
:1093B000BDE8104003F078BBC06B03F07DBB00003C
:1093C00010B596B06946044603F0E6FCD0B9019B9F
:1093D0005B04224606D515491548FAF7DFFF012040
:1093E00016B010BD12481349FCF769FE204609F07B
:1093F0003BFA40F2FF11204603F0D6FC80B90E493B
:109400002246E9E703F038FF0368022BF1D003F0AE
:1094100033FF0A4902680648FCF751FE0020DFE7E7
:1094200003F02AFF06490268F5E700BF0E450E006B
:1094300088E403202B450E005C450E0048450E00D5
:109440006B450E0038B51546044606F0F0FB4DB1ED
:109450002B783BB10449204606F070FC2946204693
:1094600006F06CFC204638BDB84B0E007FB50546B3
:109470000E461C464969684606F0FCFC009904B992
:10948000746A22462846FFF7DDFF684606F084FB33
:10949000284604B070BD000070B50C468EB01A4965
:1094A000CDE90032054606F0C2FBE069E1680144FF
:1094B0000431284606F08EFB211D06A806F002FCAA
:1094C000124902A806F0B3FB02A906A806F047FC61
:1094D000DDE90032064621460AA8FFF7C7FF0AA9C0
:1094E000304606F03CFC0146284606F0DCFB0AA8A4
:1094F00006F052FB02A806F04FFB06A806F04CFB54
:1095000028460EB070BD00BF67460E0001450E0034
:109510002DE9F04713468EB005460F46002A4AD083
:10952000406803F059FC0646002841D0DFF8B0A09F
:10953000DFF8A490DFF8A480304603F055FC002843
:1095400033D0827A082AF7D100F10B04696901AAA5
:10955000204603F069FE0128EED1019B9F42EBD12A
:10956000291D06A806F0AEFB51460AA806F05FFBCF
:109570000AA906A806F0F3FB214606F0FCFB01460B
:1095800002A806F09FFB0AA806F006FB06A806F054
:1095900003FB029809F068F94046029A4946FCF735
:1095A00077FD02A806F0F8FAC6E7304603F024FC7F
:1095B0000EB0BDE8F0870A4601460AA8FFF76CFF27
:1095C0000A9809F051F90A9A03490448FCF760FD2A
:1095D0000AA806F0E1FAEBE703450E0088E4032051
:1095E00001450E0070B50368044663B1436A4569DE
:1095F0001E1DAE4204D955F8040BFAF750FDF8E7EA
:109600002068FAF74CFD204670BD000010B5094BEC
:10961000044640F8403BFFF7E5FF04F1240006F064
:10962000BBFA04F1140006F0B7FA201D06F0B4FAF4
:10963000204610BDFC450E0010B50446FFF7E6FFBE
:109640002046682107F0F4F8204610BDC368CA68B8
:109650009B1A9B105A1ED0E900301B1A9B1003EB7B
:10966000C21388680A68801A03EBA00070470000E4
:109670002DE9F0470446884600F108011830FFF74D
:10968000E5FF6FF06043984202D1374807F00DF9CB
:10969000626A20686368111AA3EBA101012921D82D
:1096A0006169571ABE10B51CB3EB450F36D95D1B67
:1096B0006D0800EB8505131DA942A3EB010227D914
:1096C000994202D0284608F075F865612B68E3607E
:1096D00003F500732361EB196362EB59E36103F552
:1096E000007323624FF40070656AFAF7D4FC686077
:1096F000A36913B1D8F800201A60636A1A1D626268
:109700005B68E36103F500722262A361BDE8F08744
:109710009942DAD0381D801A2844D4E703F10209AF
:10972000012B2CBF994409F10109B9F1005F01D364
:1097300007F0B8F84FEA8900FAF7ADFC626A616990
:10974000A9EB050504326D089142824600EB8505C0
:1097500003D0521A284608F02DF82068FAF79FFC2B
:10976000C4E900A9B1E700BF11440E0038B5056A8D
:109770008269043DAA42034606D00AB10968116015
:109780009A6904329A6138BDFFF772FFFBE7000067
:109790002DE9F047C368012B86B0044608D8344948
:1097A0003448FCF78CFC0026304606B0BDE8F08754
:1097B0004068FFF705FE06460028F4D0636962683A
:1097C0002D492C48FCF764FC606803F005FB074654
:1097D0000028E8D00023DFF8A490DFF89880A36386
:1097E000384603F001FB0546002839D0837A082B60
:1097F000F6D10B35616901AA284603F015FD012851
:10980000EED1E36A7BB1294602A806F010FA04F112
:10981000240102A806F0F8FA824602A806F0BCF974
:10982000BAF1000FDCD0236829469B682046984790
:109830000028D5D0019AA36B9342B8BFA2632B46F0
:1098400049464046FCF724FC2046FFF7A9FD04F1F9
:10985000400001A9FFF78AFF2046FFF7ADFDBFE7F3
:10986000384603F0C9FA012384F834309CE700BF7E
:1098700081450E0088E4032096450E00B2450E0097
:1098800010B590F8343004460BB9FFF781FFA06B98
:109890000130A06310BD000070B590F8343004466C
:1098A0000E460BB9FFF774FF2046FFF779FDA36C56
:1098B000A26D93421ED01D682EB1226D043A9342D0
:1098C0000CD00433A3642046FFF776FD25B10A4986
:1098D0000A482A46FCF7DCFB284670BDE06CFAF724
:1098E000DEFB636D1A1D62655B68E36403F500725D
:1098F0002265E7E70025E6E7C8450E0088E4032077
:1099000013B590F83430019104460BB9FFF740FFCE
:10991000019BA26B9A42B8BFA3632046FFF740FDAC
:1099200001A904F14000FFF721FF2046FFF744FDA5
:1099300002B010BD38B50446FFF732FD04F148010E
:1099400004F15800FFF782FE05462046FFF734FD7C
:10995000284638BD014B024A1A60704788E403204C
:10996000E5450E007047704703685B681847012A99
:1099700008BF016000207047022A06D0032A02D0E7
:10998000012A00D10160002070470B680360FAE7EC
:10999000022A06D0032A02D0012A00D10160002049
:1099A00070470B680360FAE7022A06D0032A02D048
:1099B000012A00D10160002070470B680360FAE7BC
:1099C000012A08BF016000207047022A06D0032A3E
:1099D00002D0012A00D10160002070470B680360AB
:1099E000FAE7022A06D0032A02D0012A00D1016038
:1099F000002070470B680360FAE7022A06D0032AAA
:109A000002D0012A00D10160002070470B6803607A
:109A1000FAE7022A06D0032A02D0012A00D1016007
:109A2000002070470B680360FAE7012A034602D161
:109A3000016000207047022A04BFD1E90001C3E998
:109A40000001F6E710B5034B03600446FDF724FA66
:109A5000204610BD80480E0010B50446FFF7F2FF07
:109A6000204640F2BC5106F0E3FE204610BD10B582
:109A7000C36904461BB103F077F8A06110BD036809
:109A8000BDE810409B68184710B5006883680BB9A3
:109A900006F00EFFBDE81040C36818470B4601688A
:109AA000184604F0C1BD0B460168184604F0BCBD61
:109AB00010B50446C2688068002107F095FEA368CF
:109AC00022691A60A368A28A9A80D4E90232DA80F5
:109AD00010BD0B2910B51AD9836802691C6894421D
